{
  "contractName": "Freelancer",
  "abi": [
    {
      "inputs": [
        {
          "internalType": "address",
          "name": "_newOwner",
          "type": "address"
        },
        {
          "internalType": "address",
          "name": "_tokenAddress",
          "type": "address"
        }
      ],
      "stateMutability": "nonpayable",
      "type": "constructor"
    },
    {
      "anonymous": false,
      "inputs": [
        {
          "indexed": true,
          "internalType": "address",
          "name": "_client",
          "type": "address"
        },
        {
          "indexed": false,
          "internalType": "uint256",
          "name": "_value",
          "type": "uint256"
        }
      ],
      "name": "Deposit",
      "type": "event"
    },
    {
      "anonymous": false,
      "inputs": [
        {
          "indexed": true,
          "internalType": "address",
          "name": "_client",
          "type": "address"
        },
        {
          "indexed": false,
          "internalType": "uint256",
          "name": "_value",
          "type": "uint256"
        }
      ],
      "name": "Disperse",
      "type": "event"
    },
    {
      "anonymous": false,
      "inputs": [
        {
          "indexed": true,
          "internalType": "address",
          "name": "previousOwner",
          "type": "address"
        },
        {
          "indexed": true,
          "internalType": "address",
          "name": "newOwner",
          "type": "address"
        }
      ],
      "name": "OwnershipTransferred",
      "type": "event"
    },
    {
      "anonymous": false,
      "inputs": [
        {
          "indexed": true,
          "internalType": "address",
          "name": "_client",
          "type": "address"
        },
        {
          "indexed": false,
          "internalType": "uint256",
          "name": "_value",
          "type": "uint256"
        }
      ],
      "name": "Refund",
      "type": "event"
    },
    {
      "inputs": [
        {
          "internalType": "uint256",
          "name": "",
          "type": "uint256"
        }
      ],
      "name": "clients",
      "outputs": [
        {
          "internalType": "address",
          "name": "",
          "type": "address"
        }
      ],
      "stateMutability": "view",
      "type": "function",
      "constant": true
    },
    {
      "inputs": [],
      "name": "owner",
      "outputs": [
        {
          "internalType": "address",
          "name": "",
          "type": "address"
        }
      ],
      "stateMutability": "view",
      "type": "function",
      "constant": true
    },
    {
      "inputs": [],
      "name": "renounceOwnership",
      "outputs": [],
      "stateMutability": "nonpayable",
      "type": "function"
    },
    {
      "inputs": [],
      "name": "token",
      "outputs": [
        {
          "internalType": "contract IERC20",
          "name": "",
          "type": "address"
        }
      ],
      "stateMutability": "view",
      "type": "function",
      "constant": true
    },
    {
      "inputs": [
        {
          "internalType": "address",
          "name": "newOwner",
          "type": "address"
        }
      ],
      "name": "transferOwnership",
      "outputs": [],
      "stateMutability": "nonpayable",
      "type": "function"
    },
    {
      "inputs": [
        {
          "internalType": "uint256",
          "name": "_value",
          "type": "uint256"
        }
      ],
      "name": "sendToken",
      "outputs": [
        {
          "internalType": "bool",
          "name": "",
          "type": "bool"
        }
      ],
      "stateMutability": "nonpayable",
      "type": "function"
    },
    {
      "inputs": [
        {
          "internalType": "address",
          "name": "_client",
          "type": "address"
        }
      ],
      "name": "markShipped",
      "outputs": [],
      "stateMutability": "nonpayable",
      "type": "function"
    },
    {
      "inputs": [],
      "name": "markReceived",
      "outputs": [],
      "stateMutability": "nonpayable",
      "type": "function"
    },
    {
      "inputs": [
        {
          "internalType": "address",
          "name": "_client",
          "type": "address"
        }
      ],
      "name": "refund",
      "outputs": [],
      "stateMutability": "nonpayable",
      "type": "function"
    },
    {
      "inputs": [],
      "name": "reset",
      "outputs": [],
      "stateMutability": "nonpayable",
      "type": "function"
    },
    {
      "inputs": [
        {
          "internalType": "address",
          "name": "_escrow",
          "type": "address"
        }
      ],
      "name": "getEscrowValues",
      "outputs": [
        {
          "internalType": "uint256",
          "name": "",
          "type": "uint256"
        },
        {
          "internalType": "bool",
          "name": "",
          "type": "bool"
        },
        {
          "internalType": "bool",
          "name": "",
          "type": "bool"
        }
      ],
      "stateMutability": "view",
      "type": "function",
      "constant": true
    },
    {
      "inputs": [],
      "name": "getClients",
      "outputs": [
        {
          "internalType": "address[]",
          "name": "",
          "type": "address[]"
        }
      ],
      "stateMutability": "view",
      "type": "function",
      "constant": true
    },
    {
      "inputs": [],
      "name": "getOwner",
      "outputs": [
        {
          "internalType": "address",
          "name": "",
          "type": "address"
        }
      ],
      "stateMutability": "view",
      "type": "function",
      "constant": true
    },
    {
      "inputs": [],
      "name": "total",
      "outputs": [
        {
          "internalType": "uint256",
          "name": "",
          "type": "uint256"
        }
      ],
      "stateMutability": "view",
      "type": "function",
      "constant": true
    }
  ],
  "bytecode": "0x60806040523480156200001157600080fd5b506040516200214338038062002143833981810160405260408110156200003757600080fd5b8101908080519060200190929190805190602001909291905050506000620000646200015c60201b60201c565b9050806000806101000a81548173ffffffffffffffffffffffffffffffffffffffff021916908373ffffffffffffffffffffffffffffffffffffffff1602179055508073ffffffffffffffffffffffffffffffffffffffff16600073ffffffffffffffffffffffffffffffffffffffff167f8be0079c531659141344cd1fd0a4f28419497f9722a3daafe3b4186f6b6457e060405160405180910390a35062000113826200016460201b60201c565b80600360006101000a81548173ffffffffffffffffffffffffffffffffffffffff021916908373ffffffffffffffffffffffffffffffffffffffff16021790555050506200037a565b600033905090565b620001746200015c60201b60201c565b73ffffffffffffffffffffffffffffffffffffffff1660008054906101000a900473ffffffffffffffffffffffffffffffffffffffff1673ffffffffffffffffffffffffffffffffffffffff161462000235576040517f08c379a00000000000000000000000000000000000000000000000000000000081526004018080602001828103825260208152602001807f4f776e61626c653a2063616c6c6572206973206e6f7420746865206f776e657281525060200191505060405180910390fd5b600073ffffffffffffffffffffffffffffffffffffffff168173ffffffffffffffffffffffffffffffffffffffff161415620002bd576040517f08c379a00000000000000000000000000000000000000000000000000000000081526004018080602001828103825260268152602001806200211d6026913960400191505060405180910390fd5b8073ffffffffffffffffffffffffffffffffffffffff1660008054906101000a900473ffffffffffffffffffffffffffffffffffffffff1673ffffffffffffffffffffffffffffffffffffffff167f8be0079c531659141344cd1fd0a4f28419497f9722a3daafe3b4186f6b6457e060405160405180910390a3806000806101000a81548173ffffffffffffffffffffffffffffffffffffffff021916908373ffffffffffffffffffffffffffffffffffffffff16021790555050565b611d93806200038a6000396000f3fe608060405234801561001057600080fd5b50600436106100ea5760003560e01c8063ac56f9ac1161008c578063f88af21d11610066578063f88af21d146102e4578063fa89401a1461033c578063fc0c546a14610380578063fc6dc17d146103b4576100ea565b8063ac56f9ac1461022c578063d826f88f14610296578063f2fde38b146102a0576100ea565b80636db80995116100c85780636db809951461015b578063715018a6146101ba578063893d20e8146101c45780638da5cb5b146101f8576100ea565b80632ddbd13a146100ef578063437e95f11461010d5780635748b18414610151575b600080fd5b6100f76103f8565b6040518082815260200191505060405180910390f35b6101396004803603602081101561012357600080fd5b81019080803590602001909291905050506104c8565b60405180821515815260200191505060405180910390f35b610159610790565b005b610163610ab0565b6040518080602001828103825283818151815260200191508051906020019060200280838360005b838110156101a657808201518184015260208101905061018b565b505050509050019250505060405180910390f35b6101c2610b3e565b005b6101cc610cc4565b604051808273ffffffffffffffffffffffffffffffffffffffff16815260200191505060405180910390f35b610200610cd8565b604051808273ffffffffffffffffffffffffffffffffffffffff16815260200191505060405180910390f35b61026e6004803603602081101561024257600080fd5b81019080803573ffffffffffffffffffffffffffffffffffffffff169060200190929190505050610d01565b6040518084815260200183151581526020018215158152602001935050505060405180910390f35b61029e610db7565b005b6102e2600480360360208110156102b657600080fd5b81019080803573ffffffffffffffffffffffffffffffffffffffff169060200190929190505050611146565b005b610310600480360360208110156102fa57600080fd5b8101908080359060200190929190505050611351565b604051808273ffffffffffffffffffffffffffffffffffffffff16815260200191505060405180910390f35b61037e6004803603602081101561035257600080fd5b81019080803573ffffffffffffffffffffffffffffffffffffffff16906020019092919050505061138d565b005b61038861172d565b604051808273ffffffffffffffffffffffffffffffffffffffff16815260200191505060405180910390f35b6103f6600480360360208110156103ca57600080fd5b81019080803573ffffffffffffffffffffffffffffffffffffffff169060200190929190505050611753565b005b600080600360009054906101000a900473ffffffffffffffffffffffffffffffffffffffff1673ffffffffffffffffffffffffffffffffffffffff166370a08231306040518263ffffffff1660e01b8152600401808273ffffffffffffffffffffffffffffffffffffffff16815260200191505060206040518083038186803b15801561048457600080fd5b505afa158015610498573d6000803e3d6000fd5b505050506040513d60208110156104ae57600080fd5b810190808051906020019092919050505090508091505090565b600080600160003373ffffffffffffffffffffffffffffffffffffffff1673ffffffffffffffffffffffffffffffffffffffff16815260200190815260200160002090506000816000015414610569576040517f08c379a0000000000000000000000000000000000000000000000000000000008152600401808060200182810382526022815260200180611d3c6022913960400191505060405180910390fd5b6000600360009054906101000a900473ffffffffffffffffffffffffffffffffffffffff1673ffffffffffffffffffffffffffffffffffffffff166323b872dd3330876040518463ffffffff1660e01b8152600401808473ffffffffffffffffffffffffffffffffffffffff1681526020018373ffffffffffffffffffffffffffffffffffffffff1681526020018281526020019350505050602060405180830381600087803b15801561061c57600080fd5b505af1158015610630573d6000803e3d6000fd5b505050506040513d602081101561064657600080fd5b81019080805190602001909291905050509050806106cc576040517f08c379a000000000000000000000000000000000000000000000000000000000815260040180806020018281038252600f8152602001807f7472616e73666572206661696c6564000000000000000000000000000000000081525060200191505060405180910390fd5b8382600001819055506002339080600181540180825580915050600190039060005260206000200160009091909190916101000a81548173ffffffffffffffffffffffffffffffffffffffff021916908373ffffffffffffffffffffffffffffffffffffffff1602179055503373ffffffffffffffffffffffffffffffffffffffff167fe1fffcc4923d04b559f4d29a8bfc6cda04eb5b0d3c460751c2402c5c5cc9109c856040518082815260200191505060405180910390a28092505050919050565b6000600160003373ffffffffffffffffffffffffffffffffffffffff1673ffffffffffffffffffffffffffffffffffffffff1681526020019081526020016000209050600081600001541161084d576040517f08c379a00000000000000000000000000000000000000000000000000000000081526004018080602001828103825260158152602001807f7468697320657363726f7720697320656d70747921000000000000000000000081525060200191505060405180910390fd5b60018160010160016101000a81548160ff021916908315150217905550600115158160010160009054906101000a900460ff1615151415610aad576000610892610cd8565b90506000600360009054906101000a900473ffffffffffffffffffffffffffffffffffffffff1673ffffffffffffffffffffffffffffffffffffffff1663a9059cbb8385600001546040518363ffffffff1660e01b8152600401808373ffffffffffffffffffffffffffffffffffffffff16815260200182815260200192505050602060405180830381600087803b15801561092d57600080fd5b505af1158015610941573d6000803e3d6000fd5b505050506040513d602081101561095757600080fd5b81019080805190602001909291905050509050806109dd576040517f08c379a000000000000000000000000000000000000000000000000000000000815260040180806020018281038252600f8152602001807f7472616e73666572206661696c6564000000000000000000000000000000000081525060200191505060405180910390fd5b3373ffffffffffffffffffffffffffffffffffffffff167f0d146c6f57f8a168870bb63fd25e4a3c463e17b97f867ccd15389f6cabd36dc584600001546040518082815260200191505060405180910390a2600160003373ffffffffffffffffffffffffffffffffffffffff1673ffffffffffffffffffffffffffffffffffffffff1681526020019081526020016000206000808201600090556001820160006101000a81549060ff02191690556001820160016101000a81549060ff02191690555050610aaa33611b35565b50505b50565b60606002805480602002602001604051908101604052809291908181526020018280548015610b3457602002820191906000526020600020905b8160009054906101000a900473ffffffffffffffffffffffffffffffffffffffff1673ffffffffffffffffffffffffffffffffffffffff1681526020019060010190808311610aea575b5050505050905090565b610b46611caa565b73ffffffffffffffffffffffffffffffffffffffff1660008054906101000a900473ffffffffffffffffffffffffffffffffffffffff1673ffffffffffffffffffffffffffffffffffffffff1614610c06576040517f08c379a00000000000000000000000000000000000000000000000000000000081526004018080602001828103825260208152602001807f4f776e61626c653a2063616c6c6572206973206e6f7420746865206f776e657281525060200191505060405180910390fd5b600073ffffffffffffffffffffffffffffffffffffffff1660008054906101000a900473ffffffffffffffffffffffffffffffffffffffff1673ffffffffffffffffffffffffffffffffffffffff167f8be0079c531659141344cd1fd0a4f28419497f9722a3daafe3b4186f6b6457e060405160405180910390a360008060006101000a81548173ffffffffffffffffffffffffffffffffffffffff021916908373ffffffffffffffffffffffffffffffffffffffff160217905550565b600080610ccf610cd8565b90508091505090565b60008060009054906101000a900473ffffffffffffffffffffffffffffffffffffffff16905090565b6000806000610d0e611cb2565b600160008673ffffffffffffffffffffffffffffffffffffffff1673ffffffffffffffffffffffffffffffffffffffff168152602001908152602001600020604051806060016040529081600082015481526020016001820160009054906101000a900460ff161515151581526020016001820160019054906101000a900460ff1615151515815250509050806000015181602001518260400151935093509350509193909250565b610dbf611caa565b73ffffffffffffffffffffffffffffffffffffffff1660008054906101000a900473ffffffffffffffffffffffffffffffffffffffff1673ffffffffffffffffffffffffffffffffffffffff1614610e7f576040517f08c379a00000000000000000000000000000000000000000000000000000000081526004018080602001828103825260208152602001807f4f776e61626c653a2063616c6c6572206973206e6f7420746865206f776e657281525060200191505060405180910390fd5b6000610e89610cd8565b90506000600280549050905060008190505b6000811115610f9b576001600060026001840381548110610eb857fe5b9060005260206000200160009054906101000a900473ffffffffffffffffffffffffffffffffffffffff1673ffffffffffffffffffffffffffffffffffffffff1673ffffffffffffffffffffffffffffffffffffffff1681526020019081526020016000206000808201600090556001820160006101000a81549060ff02191690556001820160016101000a81549060ff0219169055505060026001820381548110610f6057fe5b9060005260206000200160006101000a81549073ffffffffffffffffffffffffffffffffffffffff0219169055808060019003915050610e9b565b506000600360009054906101000a900473ffffffffffffffffffffffffffffffffffffffff1673ffffffffffffffffffffffffffffffffffffffff166370a08231306040518263ffffffff1660e01b8152600401808273ffffffffffffffffffffffffffffffffffffffff16815260200191505060206040518083038186803b15801561102757600080fd5b505afa15801561103b573d6000803e3d6000fd5b505050506040513d602081101561105157600080fd5b81019080805190602001909291905050509050600360009054906101000a900473ffffffffffffffffffffffffffffffffffffffff1673ffffffffffffffffffffffffffffffffffffffff1663a9059cbb84836040518363ffffffff1660e01b8152600401808373ffffffffffffffffffffffffffffffffffffffff16815260200182815260200192505050602060405180830381600087803b1580156110f757600080fd5b505af115801561110b573d6000803e3d6000fd5b505050506040513d602081101561112157600080fd5b810190808051906020019092919050505050600260006111419190611cd7565b505050565b61114e611caa565b73ffffffffffffffffffffffffffffffffffffffff1660008054906101000a900473ffffffffffffffffffffffffffffffffffffffff1673ffffffffffffffffffffffffffffffffffffffff161461120e576040517f08c379a00000000000000000000000000000000000000000000000000000000081526004018080602001828103825260208152602001807f4f776e61626c653a2063616c6c6572206973206e6f7420746865206f776e657281525060200191505060405180910390fd5b600073ffffffffffffffffffffffffffffffffffffffff168173ffffffffffffffffffffffffffffffffffffffff161415611294576040517f08c379a0000000000000000000000000000000000000000000000000000000008152600401808060200182810382526026815260200180611d166026913960400191505060405180910390fd5b8073ffffffffffffffffffffffffffffffffffffffff1660008054906101000a900473ffffffffffffffffffffffffffffffffffffffff1673ffffffffffffffffffffffffffffffffffffffff167f8be0079c531659141344cd1fd0a4f28419497f9722a3daafe3b4186f6b6457e060405160405180910390a3806000806101000a81548173ffffffffffffffffffffffffffffffffffffffff021916908373ffffffffffffffffffffffffffffffffffffffff16021790555050565b6002818154811061135e57fe5b906000526020600020016000915054906101000a900473ffffffffffffffffffffffffffffffffffffffff1681565b611395611caa565b73ffffffffffffffffffffffffffffffffffffffff1660008054906101000a900473ffffffffffffffffffffffffffffffffffffffff1673ffffffffffffffffffffffffffffffffffffffff1614611455576040517f08c379a00000000000000000000000000000000000000000000000000000000081526004018080602001828103825260208152602001807f4f776e61626c653a2063616c6c6572206973206e6f7420746865206f776e657281525060200191505060405180910390fd5b6000600160008373ffffffffffffffffffffffffffffffffffffffff1673ffffffffffffffffffffffffffffffffffffffff16815260200190815260200160002090506000816000015411611512576040517f08c379a00000000000000000000000000000000000000000000000000000000081526004018080602001828103825260158152602001807f7468697320657363726f7720697320656d70747921000000000000000000000081525060200191505060405180910390fd5b6000600360009054906101000a900473ffffffffffffffffffffffffffffffffffffffff1673ffffffffffffffffffffffffffffffffffffffff1663a9059cbb8484600001546040518363ffffffff1660e01b8152600401808373ffffffffffffffffffffffffffffffffffffffff16815260200182815260200192505050602060405180830381600087803b1580156115ab57600080fd5b505af11580156115bf573d6000803e3d6000fd5b505050506040513d60208110156115d557600080fd5b810190808051906020019092919050505090508061165b576040517f08c379a000000000000000000000000000000000000000000000000000000000815260040180806020018281038252600f8152602001807f7472616e73666572206661696c6564000000000000000000000000000000000081525060200191505060405180910390fd5b8273ffffffffffffffffffffffffffffffffffffffff167fbb28353e4598c3b9199101a66e0989549b659a59a54d2c27fbb183f1932c8e6d83600001546040518082815260200191505060405180910390a2600160008473ffffffffffffffffffffffffffffffffffffffff1673ffffffffffffffffffffffffffffffffffffffff1681526020019081526020016000206000808201600090556001820160006101000a81549060ff02191690556001820160016101000a81549060ff0219169055505061172883611b35565b505050565b600360009054906101000a900473ffffffffffffffffffffffffffffffffffffffff1681565b61175b611caa565b73ffffffffffffffffffffffffffffffffffffffff1660008054906101000a900473ffffffffffffffffffffffffffffffffffffffff1673ffffffffffffffffffffffffffffffffffffffff161461181b576040517f08c379a00000000000000000000000000000000000000000000000000000000081526004018080602001828103825260208152602001807f4f776e61626c653a2063616c6c6572206973206e6f7420746865206f776e657281525060200191505060405180910390fd5b6000600160008373ffffffffffffffffffffffffffffffffffffffff1673ffffffffffffffffffffffffffffffffffffffff168152602001908152602001600020905060008160000154116118d8576040517f08c379a00000000000000000000000000000000000000000000000000000000081526004018080602001828103825260158152602001807f7468697320657363726f7720697320656d70747921000000000000000000000081525060200191505060405180910390fd5b60018160010160006101000a81548160ff0219169083151502179055508060010160019054906101000a900460ff1615611b31576000611916610cd8565b90506000600360009054906101000a900473ffffffffffffffffffffffffffffffffffffffff1673ffffffffffffffffffffffffffffffffffffffff1663a9059cbb8385600001546040518363ffffffff1660e01b8152600401808373ffffffffffffffffffffffffffffffffffffffff16815260200182815260200192505050602060405180830381600087803b1580156119b157600080fd5b505af11580156119c5573d6000803e3d6000fd5b505050506040513d60208110156119db57600080fd5b8101908080519060200190929190505050905080611a61576040517f08c379a00000000000000000000000000000000000000000000000000000000081526004018080602001828103825260138152602001807f7472616e736665722077656e742077726f6e670000000000000000000000000081525060200191505060405180910390fd5b3373ffffffffffffffffffffffffffffffffffffffff167f0d146c6f57f8a168870bb63fd25e4a3c463e17b97f867ccd15389f6cabd36dc584600001546040518082815260200191505060405180910390a2600160008573ffffffffffffffffffffffffffffffffffffffff1673ffffffffffffffffffffffffffffffffffffffff1681526020019081526020016000206000808201600090556001820160006101000a81549060ff02191690556001820160016101000a81549060ff02191690555050611b2e84611b35565b50505b5050565b60006002805490509050600080600090505b82811015611bcb578373ffffffffffffffffffffffffffffffffffffffff1660028281548110611b7357fe5b9060005260206000200160009054906101000a900473ffffffffffffffffffffffffffffffffffffffff1673ffffffffffffffffffffffffffffffffffffffff161415611bbe578091505b8080600101915050611b47565b5060018203811015611c685760026001830381548110611be757fe5b9060005260206000200160009054906101000a900473ffffffffffffffffffffffffffffffffffffffff1660028281548110611c1f57fe5b9060005260206000200160006101000a81548173ffffffffffffffffffffffffffffffffffffffff021916908373ffffffffffffffffffffffffffffffffffffffff1602179055505b60026001830381548110611c7857fe5b9060005260206000200160006101000a81549073ffffffffffffffffffffffffffffffffffffffff0219169055505050565b600033905090565b6040518060600160405280600081526020016000151581526020016000151581525090565b5080546000825590600052602060002090810190611cf59190611cf8565b50565b5b80821115611d11576000816000905550600101611cf9565b509056fe4f776e61626c653a206e6577206f776e657220697320746865207a65726f206164647265737374686973206164647265737320616c72656164792068617320616e20657363726f77a2646970667358221220103c2f9783aee8f4725ae57d128557559cbd8fae53394da5a4d14804085ed31564736f6c634300060c00334f776e61626c653a206e6577206f776e657220697320746865207a65726f2061646472657373",
  "immutableReferences": {},
  "source": "import \"@openzeppelin/contracts/access/Ownable.sol\";\nimport \"@openzeppelin/contracts/token/ERC20/ERC20.sol\";\n\npragma solidity ^0.6.12;\n\ncontract Freelancer is Ownable {\n    struct Escrow {\n        //   address payable merchant;\n        uint256 balance;\n        bool isShipped;\n        bool isReceived;\n    }\n\n    mapping(address => Escrow) escrows;\n    // mapping(address => address) clientLookup;\n    address[] public clients;\n\n    IERC20 public token;\n\n    event Deposit(address indexed _client, uint256 _value);\n    event Refund(address indexed _client, uint256 _value);\n    event Disperse(address indexed _client, uint256 _value);\n\n    constructor(address _newOwner, address _tokenAddress) public {\n        transferOwnership(_newOwner);\n        token = IERC20(_tokenAddress);\n    }\n\n    function sendToken(uint256 _value) external returns (bool) {\n        Escrow storage escrow = escrows[address(msg.sender)];\n        // reject transfer from address already associated with escrow\n        require(escrow.balance == 0, \"this address already has an escrow\");\n\n        bool sent = token.transferFrom(msg.sender, address(this), _value);\n        require(sent, \"transfer failed\");\n\n        escrow.balance = _value;\n        clients.push(msg.sender);\n\n        emit Deposit(msg.sender, _value);\n        return sent;\n    }\n\n    function _transfer(address receiver, uint256 value) internal {\n        bool sent = token.transfer(receiver, value);\n\n        require(sent, \"didn't send\");\n    }\n\n    //interface should check onlyOwner?\n    function markShipped(address _client) public onlyOwner {\n        Escrow storage escrow = escrows[_client];\n        require(escrow.balance > 0, \"this escrow is empty!\");\n        escrow.isShipped = true;\n\n        if (escrow.isReceived) {\n            address owner = owner();\n            bool sent = token.transfer(address(owner), escrow.balance);\n\n            require(sent, \"transfer went wrong\");\n            emit Disperse(msg.sender, escrow.balance);\n            delete escrows[_client];\n            _cleanup(_client);\n        }\n    }\n\n    function markReceived() public {\n        Escrow storage escrow = escrows[msg.sender];\n        require(escrow.balance > 0, \"this escrow is empty!\");\n        escrow.isReceived = true;\n\n        if (escrow.isShipped == true) {\n            address owner = owner();\n            bool sent = token.transfer(address(owner), escrow.balance);\n\n            require(sent, \"transfer failed\");\n            emit Disperse(msg.sender, escrow.balance);\n            delete escrows[msg.sender];\n            _cleanup(msg.sender);\n        }\n    }\n\n    function refund(address _client) public onlyOwner {\n        Escrow storage escrow = escrows[_client];\n        require(escrow.balance > 0, \"this escrow is empty!\");\n\n        bool sent = token.transfer(address(_client), escrow.balance);\n\n        require(sent, \"transfer failed\");\n        emit Refund(_client, escrow.balance);\n        delete escrows[_client];\n        _cleanup(_client);\n    }\n\n    function reset() public onlyOwner {\n        address owner = owner();\n        uint256 length = clients.length;\n\n        for (uint256 i = length; i > 0; i--) {\n            // payable(owner).transfer(escrows[clients[i - 1]].balance);\n            // _transfer(owner, escrows[clients[i - 1]].balance);\n            // token.transfer(address(owner), escrows[clients[i-1]].balance);\n            delete escrows[clients[i - 1]];\n            delete clients[i - 1];\n        }\n\n        uint256 balance = token.balanceOf(address(this));\n        token.transfer(address(owner), balance);\n        delete clients;\n    }\n\n    // is this effecient?\n    function _cleanup(address _client) private {\n        uint256 length = clients.length;\n        uint256 indexToDelete;\n\n        for (uint256 i = 0; i < length; i++) {\n            if (clients[i] == _client) {\n                indexToDelete = i;\n            }\n        }\n\n        // if indexToDelete is not last in array, swap position\n        if (indexToDelete < length - 1) {\n            clients[indexToDelete] = clients[length - 1];\n        }\n        // remove last element\n        delete clients[length - 1];\n    }\n\n    function getEscrowValues(address _escrow)\n        public\n        view\n        returns (\n            uint256,\n            bool,\n            bool\n        )\n    {\n        Escrow memory escrow = escrows[_escrow];\n        return (escrow.balance, escrow.isShipped, escrow.isReceived);\n    }\n\n    function getClients() public view returns (address[] memory) {\n        return clients;\n    }\n\n    // mark for deletion, already in Ownable.sol\n    function getOwner() public view returns (address) {\n        address owner = owner();\n        return owner;\n    }\n\n    function total() public view returns (uint256) {\n        uint256 balance = token.balanceOf(address(this));\n        return balance;\n    }\n}\n",
  "sourcePath": "/home/janssen/Code/ethdev/trustless-freelancer/contract/contracts/Freelancer.sol",
  "compiler": {
    "name": "solc",
    "version": "0.6.12+commit.27d51765.Emscripten.clang"
  },
  "schemaVersion": "3.2.3",
  "updatedAt": "2020-11-06T20:33:38.269Z",
  "networkType": "ethereum",
  "devdoc": {
    "kind": "dev",
    "methods": {
      "owner()": {
        "details": "Returns the address of the current owner."
      },
      "renounceOwnership()": {
        "details": "Leaves the contract without owner. It will not be possible to call `onlyOwner` functions anymore. Can only be called by the current owner. NOTE: Renouncing ownership will leave the contract without an owner, thereby removing any functionality that is only available to the owner."
      },
      "transferOwnership(address)": {
        "details": "Transfers ownership of the contract to a new account (`newOwner`). Can only be called by the current owner."
      }
    },
    "version": 1
  },
  "userdoc": {
    "kind": "user",
    "methods": {},
    "version": 1
  }
}