{
  "contractName": "Freelancer",
  "abi": [
    {
      "inputs": [
        {
          "internalType": "address",
          "name": "_newOwner",
          "type": "address"
        },
        {
          "internalType": "string",
          "name": "_contractName",
          "type": "string"
        },
        {
          "internalType": "address",
          "name": "_tokenAddress",
          "type": "address"
        }
      ],
      "stateMutability": "nonpayable",
      "type": "constructor"
    },
    {
      "anonymous": false,
      "inputs": [
        {
          "indexed": true,
          "internalType": "address",
          "name": "_client",
          "type": "address"
        },
        {
          "indexed": false,
          "internalType": "uint256",
          "name": "_value",
          "type": "uint256"
        }
      ],
      "name": "Deposit",
      "type": "event"
    },
    {
      "anonymous": false,
      "inputs": [
        {
          "indexed": true,
          "internalType": "address",
          "name": "_client",
          "type": "address"
        },
        {
          "indexed": false,
          "internalType": "uint256",
          "name": "_value",
          "type": "uint256"
        }
      ],
      "name": "Disperse",
      "type": "event"
    },
    {
      "anonymous": false,
      "inputs": [
        {
          "indexed": true,
          "internalType": "address",
          "name": "previousOwner",
          "type": "address"
        },
        {
          "indexed": true,
          "internalType": "address",
          "name": "newOwner",
          "type": "address"
        }
      ],
      "name": "OwnershipTransferred",
      "type": "event"
    },
    {
      "anonymous": false,
      "inputs": [
        {
          "indexed": true,
          "internalType": "address",
          "name": "_client",
          "type": "address"
        },
        {
          "indexed": false,
          "internalType": "uint256",
          "name": "_value",
          "type": "uint256"
        }
      ],
      "name": "Refund",
      "type": "event"
    },
    {
      "inputs": [
        {
          "internalType": "uint256",
          "name": "",
          "type": "uint256"
        }
      ],
      "name": "clients",
      "outputs": [
        {
          "internalType": "address",
          "name": "",
          "type": "address"
        }
      ],
      "stateMutability": "view",
      "type": "function",
      "constant": true
    },
    {
      "inputs": [],
      "name": "owner",
      "outputs": [
        {
          "internalType": "address",
          "name": "",
          "type": "address"
        }
      ],
      "stateMutability": "view",
      "type": "function",
      "constant": true
    },
    {
      "inputs": [],
      "name": "renounceOwnership",
      "outputs": [],
      "stateMutability": "nonpayable",
      "type": "function"
    },
    {
      "inputs": [],
      "name": "token",
      "outputs": [
        {
          "internalType": "contract IERC20",
          "name": "",
          "type": "address"
        }
      ],
      "stateMutability": "view",
      "type": "function",
      "constant": true
    },
    {
      "inputs": [
        {
          "internalType": "address",
          "name": "newOwner",
          "type": "address"
        }
      ],
      "name": "transferOwnership",
      "outputs": [],
      "stateMutability": "nonpayable",
      "type": "function"
    },
    {
      "inputs": [
        {
          "internalType": "uint256",
          "name": "_value",
          "type": "uint256"
        },
        {
          "internalType": "string",
          "name": "_clientName",
          "type": "string"
        }
      ],
      "name": "sendToken",
      "outputs": [
        {
          "internalType": "bool",
          "name": "",
          "type": "bool"
        }
      ],
      "stateMutability": "nonpayable",
      "type": "function"
    },
    {
      "inputs": [
        {
          "internalType": "address",
          "name": "_client",
          "type": "address"
        }
      ],
      "name": "markShipped",
      "outputs": [],
      "stateMutability": "nonpayable",
      "type": "function"
    },
    {
      "inputs": [],
      "name": "markReceived",
      "outputs": [],
      "stateMutability": "nonpayable",
      "type": "function"
    },
    {
      "inputs": [
        {
          "internalType": "address",
          "name": "_client",
          "type": "address"
        }
      ],
      "name": "refund",
      "outputs": [],
      "stateMutability": "nonpayable",
      "type": "function"
    },
    {
      "inputs": [],
      "name": "reset",
      "outputs": [],
      "stateMutability": "nonpayable",
      "type": "function"
    },
    {
      "inputs": [
        {
          "internalType": "address",
          "name": "_escrow",
          "type": "address"
        }
      ],
      "name": "getEscrowValues",
      "outputs": [
        {
          "internalType": "string",
          "name": "name",
          "type": "string"
        },
        {
          "internalType": "uint256",
          "name": "balance",
          "type": "uint256"
        },
        {
          "internalType": "bool",
          "name": "isShipped",
          "type": "bool"
        },
        {
          "internalType": "bool",
          "name": "isReceived",
          "type": "bool"
        }
      ],
      "stateMutability": "view",
      "type": "function",
      "constant": true
    },
    {
      "inputs": [],
      "name": "getClients",
      "outputs": [
        {
          "internalType": "address[]",
          "name": "",
          "type": "address[]"
        }
      ],
      "stateMutability": "view",
      "type": "function",
      "constant": true
    },
    {
      "inputs": [],
      "name": "getName",
      "outputs": [
        {
          "internalType": "string",
          "name": "",
          "type": "string"
        }
      ],
      "stateMutability": "view",
      "type": "function",
      "constant": true
    },
    {
      "inputs": [],
      "name": "getOwner",
      "outputs": [
        {
          "internalType": "address",
          "name": "",
          "type": "address"
        }
      ],
      "stateMutability": "view",
      "type": "function",
      "constant": true
    },
    {
      "inputs": [],
      "name": "total",
      "outputs": [
        {
          "internalType": "uint256",
          "name": "",
          "type": "uint256"
        }
      ],
      "stateMutability": "view",
      "type": "function",
      "constant": true
    }
  ],
  "bytecode": "0x60806040523480156200001157600080fd5b50604051620026c7380380620026c7833981810160405260608110156200003757600080fd5b8101908080519060200190929190805160405193929190846401000000008211156200006257600080fd5b838201915060208201858111156200007957600080fd5b82518660018202830111640100000000821117156200009757600080fd5b8083526020830192505050908051906020019080838360005b83811015620000cd578082015181840152602081019050620000b0565b50505050905090810190601f168015620000fb5780820380516001836020036101000a031916815260200191505b50604052602001805190602001909291905050506000620001216200023360201b60201c565b9050806000806101000a81548173ffffffffffffffffffffffffffffffffffffffff021916908373ffffffffffffffffffffffffffffffffffffffff1602179055508073ffffffffffffffffffffffffffffffffffffffff16600073ffffffffffffffffffffffffffffffffffffffff167f8be0079c531659141344cd1fd0a4f28419497f9722a3daafe3b4186f6b6457e060405160405180910390a350620001d0836200023b60201b60201c565b8160039080519060200190620001e892919062000451565b5080600460006101000a81548173ffffffffffffffffffffffffffffffffffffffff021916908373ffffffffffffffffffffffffffffffffffffffff160217905550505050620004f7565b600033905090565b6200024b6200023360201b60201c565b73ffffffffffffffffffffffffffffffffffffffff1660008054906101000a900473ffffffffffffffffffffffffffffffffffffffff1673ffffffffffffffffffffffffffffffffffffffff16146200030c576040517f08c379a00000000000000000000000000000000000000000000000000000000081526004018080602001828103825260208152602001807f4f776e61626c653a2063616c6c6572206973206e6f7420746865206f776e657281525060200191505060405180910390fd5b600073ffffffffffffffffffffffffffffffffffffffff168173ffffffffffffffffffffffffffffffffffffffff16141562000394576040517f08c379a0000000000000000000000000000000000000000000000000000000008152600401808060200182810382526026815260200180620026a16026913960400191505060405180910390fd5b8073ffffffffffffffffffffffffffffffffffffffff1660008054906101000a900473ffffffffffffffffffffffffffffffffffffffff1673ffffffffffffffffffffffffffffffffffffffff167f8be0079c531659141344cd1fd0a4f28419497f9722a3daafe3b4186f6b6457e060405160405180910390a3806000806101000a81548173ffffffffffffffffffffffffffffffffffffffff021916908373ffffffffffffffffffffffffffffffffffffffff16021790555050565b828054600181600116156101000203166002900490600052602060002090601f016020900481019282601f106200049457805160ff1916838001178555620004c5565b82800160010185558215620004c5579182015b82811115620004c4578251825591602001919060010190620004a7565b5b509050620004d49190620004d8565b5090565b5b80821115620004f3576000816000905550600101620004d9565b5090565b61219a80620005076000396000f3fe608060405234801561001057600080fd5b50600436106100f55760003560e01c80638da5cb5b11610097578063f88af21d11610066578063f88af21d14610475578063fa89401a146104cd578063fc0c546a14610511578063fc6dc17d14610545576100f5565b80638da5cb5b1461031d578063ac56f9ac14610351578063d826f88f14610427578063f2fde38b14610431576100f5565b80636db80995116100d35780636db80995146101a5578063715018a61461020457806385a084de1461020e578063893d20e8146102e9576100f5565b806317d7de7c146100fa5780632ddbd13a1461017d5780635748b1841461019b575b600080fd5b610102610589565b6040518080602001828103825283818151815260200191508051906020019080838360005b83811015610142578082015181840152602081019050610127565b50505050905090810190601f16801561016f5780820380516001836020036101000a031916815260200191505b509250505060405180910390f35b61018561062b565b6040518082815260200191505060405180910390f35b6101a36106fb565b005b6101ad610a2b565b6040518080602001828103825283818151815260200191508051906020019060200280838360005b838110156101f05780820151818401526020810190506101d5565b505050509050019250505060405180910390f35b61020c610ab9565b005b6102d16004803603604081101561022457600080fd5b81019080803590602001909291908035906020019064010000000081111561024b57600080fd5b82018360208201111561025d57600080fd5b8035906020019184600183028401116401000000008311171561027f57600080fd5b91908080601f016020809104026020016040519081016040528093929190818152602001838380828437600081840152601f19601f820116905080830192505050505050509192919290505050610c3f565b60405180821515815260200191505060405180910390f35b6102f1610f21565b604051808273ffffffffffffffffffffffffffffffffffffffff16815260200191505060405180910390f35b610325610f35565b604051808273ffffffffffffffffffffffffffffffffffffffff16815260200191505060405180910390f35b6103936004803603602081101561036757600080fd5b81019080803573ffffffffffffffffffffffffffffffffffffffff169060200190929190505050610f5e565b604051808060200185815260200184151581526020018315158152602001828103825286818151815260200191508051906020019080838360005b838110156103e95780820151818401526020810190506103ce565b50505050905090810190601f1680156104165780820380516001836020036101000a031916815260200191505b509550505050505060405180910390f35b61042f6110bf565b005b6104736004803603602081101561044757600080fd5b81019080803573ffffffffffffffffffffffffffffffffffffffff16906020019092919050505061145e565b005b6104a16004803603602081101561048b57600080fd5b8101908080359060200190929190505050611669565b604051808273ffffffffffffffffffffffffffffffffffffffff16815260200191505060405180910390f35b61050f600480360360208110156104e357600080fd5b81019080803573ffffffffffffffffffffffffffffffffffffffff1690602001909291905050506116a5565b005b610519611a55565b604051808273ffffffffffffffffffffffffffffffffffffffff16815260200191505060405180910390f35b6105876004803603602081101561055b57600080fd5b81019080803573ffffffffffffffffffffffffffffffffffffffff169060200190929190505050611a7b565b005b606060038054600181600116156101000203166002900480601f0160208091040260200160405190810160405280929190818152602001828054600181600116156101000203166002900480156106215780601f106105f657610100808354040283529160200191610621565b820191906000526020600020905b81548152906001019060200180831161060457829003601f168201915b5050505050905090565b600080600460009054906101000a900473ffffffffffffffffffffffffffffffffffffffff1673ffffffffffffffffffffffffffffffffffffffff166370a08231306040518263ffffffff1660e01b8152600401808273ffffffffffffffffffffffffffffffffffffffff16815260200191505060206040518083038186803b1580156106b757600080fd5b505afa1580156106cb573d6000803e3d6000fd5b505050506040513d60208110156106e157600080fd5b810190808051906020019092919050505090508091505090565b6000600160003373ffffffffffffffffffffffffffffffffffffffff1673ffffffffffffffffffffffffffffffffffffffff168152602001908152602001600020905060008160000154116107b8576040517f08c379a00000000000000000000000000000000000000000000000000000000081526004018080602001828103825260158152602001807f7468697320657363726f7720697320656d70747921000000000000000000000081525060200191505060405180910390fd5b60018160020160016101000a81548160ff021916908315150217905550600115158160020160009054906101000a900460ff1615151415610a285760006107fd610f35565b90506000600460009054906101000a900473ffffffffffffffffffffffffffffffffffffffff1673ffffffffffffffffffffffffffffffffffffffff1663a9059cbb8385600001546040518363ffffffff1660e01b8152600401808373ffffffffffffffffffffffffffffffffffffffff16815260200182815260200192505050602060405180830381600087803b15801561089857600080fd5b505af11580156108ac573d6000803e3d6000fd5b505050506040513d60208110156108c257600080fd5b8101908080519060200190929190505050905080610948576040517f08c379a000000000000000000000000000000000000000000000000000000000815260040180806020018281038252600f8152602001807f7472616e73666572206661696c6564000000000000000000000000000000000081525060200191505060405180910390fd5b3373ffffffffffffffffffffffffffffffffffffffff167f0d146c6f57f8a168870bb63fd25e4a3c463e17b97f867ccd15389f6cabd36dc584600001546040518082815260200191505060405180910390a2600160003373ffffffffffffffffffffffffffffffffffffffff1673ffffffffffffffffffffffffffffffffffffffff1681526020019081526020016000206000808201600090556001820160006109f29190611fea565b6002820160006101000a81549060ff02191690556002820160016101000a81549060ff02191690555050610a2533611e6d565b50505b50565b60606002805480602002602001604051908101604052809291908181526020018280548015610aaf57602002820191906000526020600020905b8160009054906101000a900473ffffffffffffffffffffffffffffffffffffffff1673ffffffffffffffffffffffffffffffffffffffff1681526020019060010190808311610a65575b5050505050905090565b610ac1611fe2565b73ffffffffffffffffffffffffffffffffffffffff1660008054906101000a900473ffffffffffffffffffffffffffffffffffffffff1673ffffffffffffffffffffffffffffffffffffffff1614610b81576040517f08c379a00000000000000000000000000000000000000000000000000000000081526004018080602001828103825260208152602001807f4f776e61626c653a2063616c6c6572206973206e6f7420746865206f776e657281525060200191505060405180910390fd5b600073ffffffffffffffffffffffffffffffffffffffff1660008054906101000a900473ffffffffffffffffffffffffffffffffffffffff1673ffffffffffffffffffffffffffffffffffffffff167f8be0079c531659141344cd1fd0a4f28419497f9722a3daafe3b4186f6b6457e060405160405180910390a360008060006101000a81548173ffffffffffffffffffffffffffffffffffffffff021916908373ffffffffffffffffffffffffffffffffffffffff160217905550565b600080600160003373ffffffffffffffffffffffffffffffffffffffff1673ffffffffffffffffffffffffffffffffffffffff16815260200190815260200160002090506000816000015414610ce0576040517f08c379a00000000000000000000000000000000000000000000000000000000081526004018080602001828103825260228152602001806121436022913960400191505060405180910390fd5b6000600460009054906101000a900473ffffffffffffffffffffffffffffffffffffffff1673ffffffffffffffffffffffffffffffffffffffff166323b872dd3330886040518463ffffffff1660e01b8152600401808473ffffffffffffffffffffffffffffffffffffffff1681526020018373ffffffffffffffffffffffffffffffffffffffff1681526020018281526020019350505050602060405180830381600087803b158015610d9357600080fd5b505af1158015610da7573d6000803e3d6000fd5b505050506040513d6020811015610dbd57600080fd5b8101908080519060200190929190505050905080610e43576040517f08c379a000000000000000000000000000000000000000000000000000000000815260040180806020018281038252600f8152602001807f7472616e73666572206661696c6564000000000000000000000000000000000081525060200191505060405180910390fd5b84826000018190555083826001019080519060200190610e64929190612032565b506002339080600181540180825580915050600190039060005260206000200160009091909190916101000a81548173ffffffffffffffffffffffffffffffffffffffff021916908373ffffffffffffffffffffffffffffffffffffffff1602179055503373ffffffffffffffffffffffffffffffffffffffff167fe1fffcc4923d04b559f4d29a8bfc6cda04eb5b0d3c460751c2402c5c5cc9109c866040518082815260200191505060405180910390a2809250505092915050565b600080610f2c610f35565b90508091505090565b60008060009054906101000a900473ffffffffffffffffffffffffffffffffffffffff16905090565b60606000806000610f6d6120b2565b600160008773ffffffffffffffffffffffffffffffffffffffff1673ffffffffffffffffffffffffffffffffffffffff16815260200190815260200160002060405180608001604052908160008201548152602001600182018054600181600116156101000203166002900480601f01602080910402602001604051908101604052809291908181526020018280546001816001161561010002031660029004801561105a5780601f1061102f5761010080835404028352916020019161105a565b820191906000526020600020905b81548152906001019060200180831161103d57829003601f168201915b505050505081526020016002820160009054906101000a900460ff161515151581526020016002820160019054906101000a900460ff161515151581525050905080602001518160000151826040015183606001519450945094509450509193509193565b6110c7611fe2565b73ffffffffffffffffffffffffffffffffffffffff1660008054906101000a900473ffffffffffffffffffffffffffffffffffffffff1673ffffffffffffffffffffffffffffffffffffffff1614611187576040517f08c379a00000000000000000000000000000000000000000000000000000000081526004018080602001828103825260208152602001807f4f776e61626c653a2063616c6c6572206973206e6f7420746865206f776e657281525060200191505060405180910390fd5b6000611191610f35565b90506000600280549050905060008190505b60008111156112b35760016000600260018403815481106111c057fe5b9060005260206000200160009054906101000a900473ffffffffffffffffffffffffffffffffffffffff1673ffffffffffffffffffffffffffffffffffffffff1673ffffffffffffffffffffffffffffffffffffffff16815260200190815260200160002060008082016000905560018201600061123e9190611fea565b6002820160006101000a81549060ff02191690556002820160016101000a81549060ff021916905550506002600182038154811061127857fe5b9060005260206000200160006101000a81549073ffffffffffffffffffffffffffffffffffffffff02191690558080600190039150506111a3565b506000600460009054906101000a900473ffffffffffffffffffffffffffffffffffffffff1673ffffffffffffffffffffffffffffffffffffffff166370a08231306040518263ffffffff1660e01b8152600401808273ffffffffffffffffffffffffffffffffffffffff16815260200191505060206040518083038186803b15801561133f57600080fd5b505afa158015611353573d6000803e3d6000fd5b505050506040513d602081101561136957600080fd5b81019080805190602001909291905050509050600460009054906101000a900473ffffffffffffffffffffffffffffffffffffffff1673ffffffffffffffffffffffffffffffffffffffff1663a9059cbb84836040518363ffffffff1660e01b8152600401808373ffffffffffffffffffffffffffffffffffffffff16815260200182815260200192505050602060405180830381600087803b15801561140f57600080fd5b505af1158015611423573d6000803e3d6000fd5b505050506040513d602081101561143957600080fd5b8101908080519060200190929190505050506002600061145991906120de565b505050565b611466611fe2565b73ffffffffffffffffffffffffffffffffffffffff1660008054906101000a900473ffffffffffffffffffffffffffffffffffffffff1673ffffffffffffffffffffffffffffffffffffffff1614611526576040517f08c379a00000000000000000000000000000000000000000000000000000000081526004018080602001828103825260208152602001807f4f776e61626c653a2063616c6c6572206973206e6f7420746865206f776e657281525060200191505060405180910390fd5b600073ffffffffffffffffffffffffffffffffffffffff168173ffffffffffffffffffffffffffffffffffffffff1614156115ac576040517f08c379a000000000000000000000000000000000000000000000000000000000815260040180806020018281038252602681526020018061211d6026913960400191505060405180910390fd5b8073ffffffffffffffffffffffffffffffffffffffff1660008054906101000a900473ffffffffffffffffffffffffffffffffffffffff1673ffffffffffffffffffffffffffffffffffffffff167f8be0079c531659141344cd1fd0a4f28419497f9722a3daafe3b4186f6b6457e060405160405180910390a3806000806101000a81548173ffffffffffffffffffffffffffffffffffffffff021916908373ffffffffffffffffffffffffffffffffffffffff16021790555050565b6002818154811061167657fe5b906000526020600020016000915054906101000a900473ffffffffffffffffffffffffffffffffffffffff1681565b6116ad611fe2565b73ffffffffffffffffffffffffffffffffffffffff1660008054906101000a900473ffffffffffffffffffffffffffffffffffffffff1673ffffffffffffffffffffffffffffffffffffffff161461176d576040517f08c379a00000000000000000000000000000000000000000000000000000000081526004018080602001828103825260208152602001807f4f776e61626c653a2063616c6c6572206973206e6f7420746865206f776e657281525060200191505060405180910390fd5b6000600160008373ffffffffffffffffffffffffffffffffffffffff1673ffffffffffffffffffffffffffffffffffffffff1681526020019081526020016000209050600081600001541161182a576040517f08c379a00000000000000000000000000000000000000000000000000000000081526004018080602001828103825260158152602001807f7468697320657363726f7720697320656d70747921000000000000000000000081525060200191505060405180910390fd5b6000600460009054906101000a900473ffffffffffffffffffffffffffffffffffffffff1673ffffffffffffffffffffffffffffffffffffffff1663a9059cbb8484600001546040518363ffffffff1660e01b8152600401808373ffffffffffffffffffffffffffffffffffffffff16815260200182815260200192505050602060405180830381600087803b1580156118c357600080fd5b505af11580156118d7573d6000803e3d6000fd5b505050506040513d60208110156118ed57600080fd5b8101908080519060200190929190505050905080611973576040517f08c379a000000000000000000000000000000000000000000000000000000000815260040180806020018281038252600f8152602001807f7472616e73666572206661696c6564000000000000000000000000000000000081525060200191505060405180910390fd5b8273ffffffffffffffffffffffffffffffffffffffff167fbb28353e4598c3b9199101a66e0989549b659a59a54d2c27fbb183f1932c8e6d83600001546040518082815260200191505060405180910390a2600160008473ffffffffffffffffffffffffffffffffffffffff1673ffffffffffffffffffffffffffffffffffffffff168152602001908152602001600020600080820160009055600182016000611a1d9190611fea565b6002820160006101000a81549060ff02191690556002820160016101000a81549060ff02191690555050611a5083611e6d565b505050565b600460009054906101000a900473ffffffffffffffffffffffffffffffffffffffff1681565b611a83611fe2565b73ffffffffffffffffffffffffffffffffffffffff1660008054906101000a900473ffffffffffffffffffffffffffffffffffffffff1673ffffffffffffffffffffffffffffffffffffffff1614611b43576040517f08c379a00000000000000000000000000000000000000000000000000000000081526004018080602001828103825260208152602001807f4f776e61626c653a2063616c6c6572206973206e6f7420746865206f776e657281525060200191505060405180910390fd5b6000600160008373ffffffffffffffffffffffffffffffffffffffff1673ffffffffffffffffffffffffffffffffffffffff16815260200190815260200160002090506000816000015411611c00576040517f08c379a00000000000000000000000000000000000000000000000000000000081526004018080602001828103825260158152602001807f7468697320657363726f7720697320656d70747921000000000000000000000081525060200191505060405180910390fd5b60018160020160006101000a81548160ff0219169083151502179055508060020160019054906101000a900460ff1615611e69576000611c3e610f35565b90506000600460009054906101000a900473ffffffffffffffffffffffffffffffffffffffff1673ffffffffffffffffffffffffffffffffffffffff1663a9059cbb8385600001546040518363ffffffff1660e01b8152600401808373ffffffffffffffffffffffffffffffffffffffff16815260200182815260200192505050602060405180830381600087803b158015611cd957600080fd5b505af1158015611ced573d6000803e3d6000fd5b505050506040513d6020811015611d0357600080fd5b8101908080519060200190929190505050905080611d89576040517f08c379a00000000000000000000000000000000000000000000000000000000081526004018080602001828103825260138152602001807f7472616e736665722077656e742077726f6e670000000000000000000000000081525060200191505060405180910390fd5b3373ffffffffffffffffffffffffffffffffffffffff167f0d146c6f57f8a168870bb63fd25e4a3c463e17b97f867ccd15389f6cabd36dc584600001546040518082815260200191505060405180910390a2600160008573ffffffffffffffffffffffffffffffffffffffff1673ffffffffffffffffffffffffffffffffffffffff168152602001908152602001600020600080820160009055600182016000611e339190611fea565b6002820160006101000a81549060ff02191690556002820160016101000a81549060ff02191690555050611e6684611e6d565b50505b5050565b60006002805490509050600080600090505b82811015611f03578373ffffffffffffffffffffffffffffffffffffffff1660028281548110611eab57fe5b9060005260206000200160009054906101000a900473ffffffffffffffffffffffffffffffffffffffff1673ffffffffffffffffffffffffffffffffffffffff161415611ef6578091505b8080600101915050611e7f565b5060018203811015611fa05760026001830381548110611f1f57fe5b9060005260206000200160009054906101000a900473ffffffffffffffffffffffffffffffffffffffff1660028281548110611f5757fe5b9060005260206000200160006101000a81548173ffffffffffffffffffffffffffffffffffffffff021916908373ffffffffffffffffffffffffffffffffffffffff1602179055505b60026001830381548110611fb057fe5b9060005260206000200160006101000a81549073ffffffffffffffffffffffffffffffffffffffff0219169055505050565b600033905090565b50805460018160011615610100020316600290046000825580601f10612010575061202f565b601f01602090049060005260206000209081019061202e91906120ff565b5b50565b828054600181600116156101000203166002900490600052602060002090601f016020900481019282601f1061207357805160ff19168380011785556120a1565b828001600101855582156120a1579182015b828111156120a0578251825591602001919060010190612085565b5b5090506120ae91906120ff565b5090565b604051806080016040528060008152602001606081526020016000151581526020016000151581525090565b50805460008255906000526020600020908101906120fc91906120ff565b50565b5b80821115612118576000816000905550600101612100565b509056fe4f776e61626c653a206e6577206f776e657220697320746865207a65726f206164647265737374686973206164647265737320616c72656164792068617320616e20657363726f77a2646970667358221220e7dec711e1545092d35b1ed1d1253663feda7365e9fe4b4fc666f284a3fa37a064736f6c634300060c00334f776e61626c653a206e6577206f776e657220697320746865207a65726f2061646472657373",
  "immutableReferences": {},
  "source": "import \"@openzeppelin/contracts/access/Ownable.sol\";\nimport \"@openzeppelin/contracts/token/ERC20/ERC20.sol\";\n\npragma solidity ^0.6.12;\n\ncontract Freelancer is Ownable {\n    struct Escrow {\n        //   address payable merchant;\n        uint256 balance;\n        string clientName;\n        bool isShipped;\n        bool isReceived;\n    }\n\n    mapping(address => Escrow) escrows;\n    // mapping(address => address) clientLookup;\n    address[] public clients;\n\n    string contractName;\n    IERC20 public token;\n\n    event Deposit(address indexed _client, uint256 _value);\n    event Refund(address indexed _client, uint256 _value);\n    event Disperse(address indexed _client, uint256 _value);\n\n    constructor(\n        address _newOwner,\n        string memory _contractName,\n        address _tokenAddress\n    ) public {\n        transferOwnership(_newOwner);\n        contractName = _contractName;\n        token = IERC20(_tokenAddress);\n    }\n\n    function sendToken(uint256 _value, string memory _clientName)\n        external\n        returns (bool)\n    {\n        Escrow storage escrow = escrows[address(msg.sender)];\n        // reject transfer from address already associated with escrow\n        require(escrow.balance == 0, \"this address already has an escrow\");\n\n        bool sent = token.transferFrom(msg.sender, address(this), _value);\n        require(sent, \"transfer failed\");\n\n        escrow.balance = _value;\n        escrow.clientName = _clientName;\n        clients.push(msg.sender);\n\n        emit Deposit(msg.sender, _value);\n        return sent;\n    }\n\n    function _transfer(address receiver, uint256 value) internal {\n        bool sent = token.transfer(receiver, value);\n\n        require(sent, \"didn't send\");\n    }\n\n    //interface should check onlyOwner?\n    function markShipped(address _client) public onlyOwner {\n        Escrow storage escrow = escrows[_client];\n        require(escrow.balance > 0, \"this escrow is empty!\");\n        escrow.isShipped = true;\n\n        if (escrow.isReceived) {\n            address owner = owner();\n            bool sent = token.transfer(address(owner), escrow.balance);\n\n            require(sent, \"transfer went wrong\");\n            emit Disperse(msg.sender, escrow.balance);\n            delete escrows[_client];\n            _cleanup(_client);\n        }\n    }\n\n    function markReceived() public {\n        Escrow storage escrow = escrows[msg.sender];\n        require(escrow.balance > 0, \"this escrow is empty!\");\n        escrow.isReceived = true;\n\n        if (escrow.isShipped == true) {\n            address owner = owner();\n            bool sent = token.transfer(address(owner), escrow.balance);\n\n            require(sent, \"transfer failed\");\n            emit Disperse(msg.sender, escrow.balance);\n            delete escrows[msg.sender];\n            _cleanup(msg.sender);\n        }\n    }\n\n    function refund(address _client) public onlyOwner {\n        Escrow storage escrow = escrows[_client];\n        require(escrow.balance > 0, \"this escrow is empty!\");\n\n        bool sent = token.transfer(address(_client), escrow.balance);\n\n        require(sent, \"transfer failed\");\n        emit Refund(_client, escrow.balance);\n        delete escrows[_client];\n        _cleanup(_client);\n    }\n\n    function reset() public onlyOwner {\n        address owner = owner();\n        uint256 length = clients.length;\n\n        for (uint256 i = length; i > 0; i--) {\n            // payable(owner).transfer(escrows[clients[i - 1]].balance);\n            // _transfer(owner, escrows[clients[i - 1]].balance);\n            // token.transfer(address(owner), escrows[clients[i-1]].balance);\n            delete escrows[clients[i - 1]];\n            delete clients[i - 1];\n        }\n\n        uint256 balance = token.balanceOf(address(this));\n        token.transfer(address(owner), balance);\n        delete clients;\n    }\n\n    // is this effecient?\n    function _cleanup(address _client) private {\n        uint256 length = clients.length;\n        uint256 indexToDelete;\n\n        for (uint256 i = 0; i < length; i++) {\n            if (clients[i] == _client) {\n                indexToDelete = i;\n            }\n        }\n\n        // if indexToDelete is not last in array, swap position\n        if (indexToDelete < length - 1) {\n            clients[indexToDelete] = clients[length - 1];\n        }\n        // remove last element\n        delete clients[length - 1];\n    }\n\n    function getEscrowValues(address _escrow)\n        public\n        view\n        returns (\n            string memory name,\n            uint256 balance,\n            bool isShipped,\n            bool isReceived\n        )\n    {\n        Escrow memory escrow = escrows[_escrow];\n        return (\n            escrow.clientName,\n            escrow.balance,\n            escrow.isShipped,\n            escrow.isReceived\n        );\n    }\n\n    function getClients() public view returns (address[] memory) {\n        return clients;\n    }\n\n    function getName() public view returns (string memory) {\n        return contractName;\n    }\n\n    // mark for deletion, already in Ownable.sol\n    function getOwner() public view returns (address) {\n        address owner = owner();\n        return owner;\n    }\n\n    function total() public view returns (uint256) {\n        uint256 balance = token.balanceOf(address(this));\n        return balance;\n    }\n}\n",
  "sourcePath": "/home/janssen/Code/ethdev/trustless-freelancer/contract/contracts/Freelancer.sol",
  "compiler": {
    "name": "solc",
    "version": "0.6.12+commit.27d51765.Emscripten.clang"
  },
  "schemaVersion": "3.2.3",
  "updatedAt": "2020-11-24T22:00:20.003Z",
  "networkType": "ethereum",
  "devdoc": {
    "kind": "dev",
    "methods": {
      "owner()": {
        "details": "Returns the address of the current owner."
      },
      "renounceOwnership()": {
        "details": "Leaves the contract without owner. It will not be possible to call `onlyOwner` functions anymore. Can only be called by the current owner. NOTE: Renouncing ownership will leave the contract without an owner, thereby removing any functionality that is only available to the owner."
      },
      "transferOwnership(address)": {
        "details": "Transfers ownership of the contract to a new account (`newOwner`). Can only be called by the current owner."
      }
    },
    "version": 1
  },
  "userdoc": {
    "kind": "user",
    "methods": {},
    "version": 1
  }
}