{
  "contractName": "Freelancer",
  "abi": [
    {
      "inputs": [
        {
          "internalType": "address",
          "name": "_newOwner",
          "type": "address"
        },
        {
          "internalType": "address",
          "name": "_tokenAddress",
          "type": "address"
        }
      ],
      "stateMutability": "nonpayable",
      "type": "constructor"
    },
    {
      "anonymous": false,
      "inputs": [
        {
          "indexed": true,
          "internalType": "address",
          "name": "_client",
          "type": "address"
        },
        {
          "indexed": false,
          "internalType": "uint256",
          "name": "_value",
          "type": "uint256"
        }
      ],
      "name": "Deposit",
      "type": "event"
    },
    {
      "anonymous": false,
      "inputs": [
        {
          "indexed": true,
          "internalType": "address",
          "name": "_client",
          "type": "address"
        },
        {
          "indexed": false,
          "internalType": "uint256",
          "name": "_value",
          "type": "uint256"
        }
      ],
      "name": "Disperse",
      "type": "event"
    },
    {
      "anonymous": false,
      "inputs": [
        {
          "indexed": true,
          "internalType": "address",
          "name": "previousOwner",
          "type": "address"
        },
        {
          "indexed": true,
          "internalType": "address",
          "name": "newOwner",
          "type": "address"
        }
      ],
      "name": "OwnershipTransferred",
      "type": "event"
    },
    {
      "anonymous": false,
      "inputs": [
        {
          "indexed": true,
          "internalType": "address",
          "name": "_client",
          "type": "address"
        },
        {
          "indexed": false,
          "internalType": "uint256",
          "name": "_value",
          "type": "uint256"
        }
      ],
      "name": "Refund",
      "type": "event"
    },
    {
      "inputs": [
        {
          "internalType": "uint256",
          "name": "",
          "type": "uint256"
        }
      ],
      "name": "clients",
      "outputs": [
        {
          "internalType": "address",
          "name": "",
          "type": "address"
        }
      ],
      "stateMutability": "view",
      "type": "function",
      "constant": true
    },
    {
      "inputs": [],
      "name": "owner",
      "outputs": [
        {
          "internalType": "address",
          "name": "",
          "type": "address"
        }
      ],
      "stateMutability": "view",
      "type": "function",
      "constant": true
    },
    {
      "inputs": [],
      "name": "renounceOwnership",
      "outputs": [],
      "stateMutability": "nonpayable",
      "type": "function"
    },
    {
      "inputs": [],
      "name": "token",
      "outputs": [
        {
          "internalType": "contract IERC20",
          "name": "",
          "type": "address"
        }
      ],
      "stateMutability": "view",
      "type": "function",
      "constant": true
    },
    {
      "inputs": [],
      "name": "totalBalance",
      "outputs": [
        {
          "internalType": "uint256",
          "name": "",
          "type": "uint256"
        }
      ],
      "stateMutability": "view",
      "type": "function",
      "constant": true
    },
    {
      "inputs": [
        {
          "internalType": "address",
          "name": "newOwner",
          "type": "address"
        }
      ],
      "name": "transferOwnership",
      "outputs": [],
      "stateMutability": "nonpayable",
      "type": "function"
    },
    {
      "inputs": [
        {
          "internalType": "uint256",
          "name": "_value",
          "type": "uint256"
        }
      ],
      "name": "sendToken",
      "outputs": [
        {
          "internalType": "bool",
          "name": "",
          "type": "bool"
        }
      ],
      "stateMutability": "nonpayable",
      "type": "function"
    },
    {
      "inputs": [
        {
          "internalType": "address",
          "name": "_client",
          "type": "address"
        }
      ],
      "name": "markShipped",
      "outputs": [],
      "stateMutability": "nonpayable",
      "type": "function"
    },
    {
      "inputs": [],
      "name": "markReceived",
      "outputs": [],
      "stateMutability": "nonpayable",
      "type": "function"
    },
    {
      "inputs": [
        {
          "internalType": "address",
          "name": "_client",
          "type": "address"
        }
      ],
      "name": "refund",
      "outputs": [],
      "stateMutability": "nonpayable",
      "type": "function"
    },
    {
      "inputs": [],
      "name": "reset",
      "outputs": [],
      "stateMutability": "nonpayable",
      "type": "function"
    },
    {
      "inputs": [
        {
          "internalType": "address",
          "name": "_escrow",
          "type": "address"
        }
      ],
      "name": "getEscrowValues",
      "outputs": [
        {
          "internalType": "uint256",
          "name": "",
          "type": "uint256"
        },
        {
          "internalType": "bool",
          "name": "",
          "type": "bool"
        },
        {
          "internalType": "bool",
          "name": "",
          "type": "bool"
        }
      ],
      "stateMutability": "view",
      "type": "function",
      "constant": true
    },
    {
      "inputs": [],
      "name": "getClients",
      "outputs": [
        {
          "internalType": "address[]",
          "name": "",
          "type": "address[]"
        }
      ],
      "stateMutability": "view",
      "type": "function",
      "constant": true
    },
    {
      "inputs": [],
      "name": "getOwner",
      "outputs": [
        {
          "internalType": "address",
          "name": "",
          "type": "address"
        }
      ],
      "stateMutability": "view",
      "type": "function",
      "constant": true
    },
    {
      "inputs": [],
      "name": "total",
      "outputs": [
        {
          "internalType": "uint256",
          "name": "",
          "type": "uint256"
        }
      ],
      "stateMutability": "view",
      "type": "function",
      "constant": true
    }
  ],
  "bytecode": "0x60806040523480156200001157600080fd5b506040516200210038038062002100833981810160405260408110156200003757600080fd5b8101908080519060200190929190805190602001909291905050506000620000646200015c60201b60201c565b9050806000806101000a81548173ffffffffffffffffffffffffffffffffffffffff021916908373ffffffffffffffffffffffffffffffffffffffff1602179055508073ffffffffffffffffffffffffffffffffffffffff16600073ffffffffffffffffffffffffffffffffffffffff167f8be0079c531659141344cd1fd0a4f28419497f9722a3daafe3b4186f6b6457e060405160405180910390a35062000113826200016460201b60201c565b80600460006101000a81548173ffffffffffffffffffffffffffffffffffffffff021916908373ffffffffffffffffffffffffffffffffffffffff16021790555050506200037a565b600033905090565b620001746200015c60201b60201c565b73ffffffffffffffffffffffffffffffffffffffff1660008054906101000a900473ffffffffffffffffffffffffffffffffffffffff1673ffffffffffffffffffffffffffffffffffffffff161462000235576040517f08c379a00000000000000000000000000000000000000000000000000000000081526004018080602001828103825260208152602001807f4f776e61626c653a2063616c6c6572206973206e6f7420746865206f776e657281525060200191505060405180910390fd5b600073ffffffffffffffffffffffffffffffffffffffff168173ffffffffffffffffffffffffffffffffffffffff161415620002bd576040517f08c379a0000000000000000000000000000000000000000000000000000000008152600401808060200182810382526026815260200180620020da6026913960400191505060405180910390fd5b8073ffffffffffffffffffffffffffffffffffffffff1660008054906101000a900473ffffffffffffffffffffffffffffffffffffffff1673ffffffffffffffffffffffffffffffffffffffff167f8be0079c531659141344cd1fd0a4f28419497f9722a3daafe3b4186f6b6457e060405160405180910390a3806000806101000a81548173ffffffffffffffffffffffffffffffffffffffff021916908373ffffffffffffffffffffffffffffffffffffffff16021790555050565b611d50806200038a6000396000f3fe608060405234801561001057600080fd5b50600436106100f55760003560e01c8063ac56f9ac11610097578063f88af21d11610066578063f88af21d1461030d578063fa89401a14610365578063fc0c546a146103a9578063fc6dc17d146103dd576100f5565b8063ac56f9ac14610237578063ad7a672f146102a1578063d826f88f146102bf578063f2fde38b146102c9576100f5565b80636db80995116100d35780636db8099514610166578063715018a6146101c5578063893d20e8146101cf5780638da5cb5b14610203576100f5565b80632ddbd13a146100fa578063437e95f1146101185780635748b1841461015c575b600080fd5b610102610421565b6040518082815260200191505060405180910390f35b6101446004803603602081101561012e57600080fd5b810190808035906020019092919050505061042b565b60405180821515815260200191505060405180910390f35b610164610703565b005b61016e610a37565b6040518080602001828103825283818151815260200191508051906020019060200280838360005b838110156101b1578082015181840152602081019050610196565b505050509050019250505060405180910390f35b6101cd610ac5565b005b6101d7610c4b565b604051808273ffffffffffffffffffffffffffffffffffffffff16815260200191505060405180910390f35b61020b610c5f565b604051808273ffffffffffffffffffffffffffffffffffffffff16815260200191505060405180910390f35b6102796004803603602081101561024d57600080fd5b81019080803573ffffffffffffffffffffffffffffffffffffffff169060200190929190505050610c88565b6040518084815260200183151581526020018215158152602001935050505060405180910390f35b6102a9610d3e565b6040518082815260200191505060405180910390f35b6102c7610d44565b005b61030b600480360360208110156102df57600080fd5b81019080803573ffffffffffffffffffffffffffffffffffffffff1690602001909291905050506110db565b005b6103396004803603602081101561032357600080fd5b81019080803590602001909291905050506112e6565b604051808273ffffffffffffffffffffffffffffffffffffffff16815260200191505060405180910390f35b6103a76004803603602081101561037b57600080fd5b81019080803573ffffffffffffffffffffffffffffffffffffffff169060200190929190505050611322565b005b6103b16116d6565b604051808273ffffffffffffffffffffffffffffffffffffffff16815260200191505060405180910390f35b61041f600480360360208110156103f357600080fd5b81019080803573ffffffffffffffffffffffffffffffffffffffff1690602001909291905050506116fc565b005b6000600354905090565b600080600160003373ffffffffffffffffffffffffffffffffffffffff1673ffffffffffffffffffffffffffffffffffffffff168152602001908152602001600020905060008160000154146104cc576040517f08c379a0000000000000000000000000000000000000000000000000000000008152600401808060200182810382526022815260200180611cf96022913960400191505060405180910390fd5b6000600460009054906101000a900473ffffffffffffffffffffffffffffffffffffffff1673ffffffffffffffffffffffffffffffffffffffff166323b872dd3330876040518463ffffffff1660e01b8152600401808473ffffffffffffffffffffffffffffffffffffffff1681526020018373ffffffffffffffffffffffffffffffffffffffff1681526020018281526020019350505050602060405180830381600087803b15801561057f57600080fd5b505af1158015610593573d6000803e3d6000fd5b505050506040513d60208110156105a957600080fd5b810190808051906020019092919050505090508061062f576040517f08c379a000000000000000000000000000000000000000000000000000000000815260040180806020018281038252600f8152602001807f7472616e73666572206661696c6564000000000000000000000000000000000081525060200191505060405180910390fd5b8382600001819055506002339080600181540180825580915050600190039060005260206000200160009091909190916101000a81548173ffffffffffffffffffffffffffffffffffffffff021916908373ffffffffffffffffffffffffffffffffffffffff160217905550836003600082825401925050819055503373ffffffffffffffffffffffffffffffffffffffff167fe1fffcc4923d04b559f4d29a8bfc6cda04eb5b0d3c460751c2402c5c5cc9109c856040518082815260200191505060405180910390a28092505050919050565b6000600160003373ffffffffffffffffffffffffffffffffffffffff1673ffffffffffffffffffffffffffffffffffffffff168152602001908152602001600020905060008160000154116107c0576040517f08c379a00000000000000000000000000000000000000000000000000000000081526004018080602001828103825260158152602001807f7468697320657363726f7720697320656d70747921000000000000000000000081525060200191505060405180910390fd5b60018160010160016101000a81548160ff021916908315150217905550600115158160010160009054906101000a900460ff1615151415610a34576000610805610c5f565b90506000600460009054906101000a900473ffffffffffffffffffffffffffffffffffffffff1673ffffffffffffffffffffffffffffffffffffffff1663a9059cbb8385600001546040518363ffffffff1660e01b8152600401808373ffffffffffffffffffffffffffffffffffffffff16815260200182815260200192505050602060405180830381600087803b1580156108a057600080fd5b505af11580156108b4573d6000803e3d6000fd5b505050506040513d60208110156108ca57600080fd5b8101908080519060200190929190505050905080610950576040517f08c379a000000000000000000000000000000000000000000000000000000000815260040180806020018281038252600f8152602001807f7472616e73666572206661696c6564000000000000000000000000000000000081525060200191505060405180910390fd5b3373ffffffffffffffffffffffffffffffffffffffff167f0d146c6f57f8a168870bb63fd25e4a3c463e17b97f867ccd15389f6cabd36dc584600001546040518082815260200191505060405180910390a28260000154600360008282540392505081905550600160003373ffffffffffffffffffffffffffffffffffffffff1673ffffffffffffffffffffffffffffffffffffffff1681526020019081526020016000206000808201600090556001820160006101000a81549060ff02191690556001820160016101000a81549060ff02191690555050610a3133611af2565b50505b50565b60606002805480602002602001604051908101604052809291908181526020018280548015610abb57602002820191906000526020600020905b8160009054906101000a900473ffffffffffffffffffffffffffffffffffffffff1673ffffffffffffffffffffffffffffffffffffffff1681526020019060010190808311610a71575b5050505050905090565b610acd611c67565b73ffffffffffffffffffffffffffffffffffffffff1660008054906101000a900473ffffffffffffffffffffffffffffffffffffffff1673ffffffffffffffffffffffffffffffffffffffff1614610b8d576040517f08c379a00000000000000000000000000000000000000000000000000000000081526004018080602001828103825260208152602001807f4f776e61626c653a2063616c6c6572206973206e6f7420746865206f776e657281525060200191505060405180910390fd5b600073ffffffffffffffffffffffffffffffffffffffff1660008054906101000a900473ffffffffffffffffffffffffffffffffffffffff1673ffffffffffffffffffffffffffffffffffffffff167f8be0079c531659141344cd1fd0a4f28419497f9722a3daafe3b4186f6b6457e060405160405180910390a360008060006101000a81548173ffffffffffffffffffffffffffffffffffffffff021916908373ffffffffffffffffffffffffffffffffffffffff160217905550565b600080610c56610c5f565b90508091505090565b60008060009054906101000a900473ffffffffffffffffffffffffffffffffffffffff16905090565b6000806000610c95611c6f565b600160008673ffffffffffffffffffffffffffffffffffffffff1673ffffffffffffffffffffffffffffffffffffffff168152602001908152602001600020604051806060016040529081600082015481526020016001820160009054906101000a900460ff161515151581526020016001820160019054906101000a900460ff1615151515815250509050806000015181602001518260400151935093509350509193909250565b60035481565b610d4c611c67565b73ffffffffffffffffffffffffffffffffffffffff1660008054906101000a900473ffffffffffffffffffffffffffffffffffffffff1673ffffffffffffffffffffffffffffffffffffffff1614610e0c576040517f08c379a00000000000000000000000000000000000000000000000000000000081526004018080602001828103825260208152602001807f4f776e61626c653a2063616c6c6572206973206e6f7420746865206f776e657281525060200191505060405180910390fd5b6000610e16610c5f565b90506000600280549050905060008190505b6000811115610f28576001600060026001840381548110610e4557fe5b9060005260206000200160009054906101000a900473ffffffffffffffffffffffffffffffffffffffff1673ffffffffffffffffffffffffffffffffffffffff1673ffffffffffffffffffffffffffffffffffffffff1681526020019081526020016000206000808201600090556001820160006101000a81549060ff02191690556001820160016101000a81549060ff0219169055505060026001820381548110610eed57fe5b9060005260206000200160006101000a81549073ffffffffffffffffffffffffffffffffffffffff0219169055808060019003915050610e28565b506000600460009054906101000a900473ffffffffffffffffffffffffffffffffffffffff1673ffffffffffffffffffffffffffffffffffffffff166370a08231306040518263ffffffff1660e01b8152600401808273ffffffffffffffffffffffffffffffffffffffff16815260200191505060206040518083038186803b158015610fb457600080fd5b505afa158015610fc8573d6000803e3d6000fd5b505050506040513d6020811015610fde57600080fd5b81019080805190602001909291905050509050600460009054906101000a900473ffffffffffffffffffffffffffffffffffffffff1673ffffffffffffffffffffffffffffffffffffffff1663a9059cbb30836040518363ffffffff1660e01b8152600401808373ffffffffffffffffffffffffffffffffffffffff16815260200182815260200192505050602060405180830381600087803b15801561108457600080fd5b505af1158015611098573d6000803e3d6000fd5b505050506040513d60208110156110ae57600080fd5b8101908080519060200190929190505050506000600381905550600260006110d69190611c94565b505050565b6110e3611c67565b73ffffffffffffffffffffffffffffffffffffffff1660008054906101000a900473ffffffffffffffffffffffffffffffffffffffff1673ffffffffffffffffffffffffffffffffffffffff16146111a3576040517f08c379a00000000000000000000000000000000000000000000000000000000081526004018080602001828103825260208152602001807f4f776e61626c653a2063616c6c6572206973206e6f7420746865206f776e657281525060200191505060405180910390fd5b600073ffffffffffffffffffffffffffffffffffffffff168173ffffffffffffffffffffffffffffffffffffffff161415611229576040517f08c379a0000000000000000000000000000000000000000000000000000000008152600401808060200182810382526026815260200180611cd36026913960400191505060405180910390fd5b8073ffffffffffffffffffffffffffffffffffffffff1660008054906101000a900473ffffffffffffffffffffffffffffffffffffffff1673ffffffffffffffffffffffffffffffffffffffff167f8be0079c531659141344cd1fd0a4f28419497f9722a3daafe3b4186f6b6457e060405160405180910390a3806000806101000a81548173ffffffffffffffffffffffffffffffffffffffff021916908373ffffffffffffffffffffffffffffffffffffffff16021790555050565b600281815481106112f357fe5b906000526020600020016000915054906101000a900473ffffffffffffffffffffffffffffffffffffffff1681565b61132a611c67565b73ffffffffffffffffffffffffffffffffffffffff1660008054906101000a900473ffffffffffffffffffffffffffffffffffffffff1673ffffffffffffffffffffffffffffffffffffffff16146113ea576040517f08c379a00000000000000000000000000000000000000000000000000000000081526004018080602001828103825260208152602001807f4f776e61626c653a2063616c6c6572206973206e6f7420746865206f776e657281525060200191505060405180910390fd5b6000600160008373ffffffffffffffffffffffffffffffffffffffff1673ffffffffffffffffffffffffffffffffffffffff168152602001908152602001600020905060008160000154116114a7576040517f08c379a00000000000000000000000000000000000000000000000000000000081526004018080602001828103825260158152602001807f7468697320657363726f7720697320656d70747921000000000000000000000081525060200191505060405180910390fd5b6000600460009054906101000a900473ffffffffffffffffffffffffffffffffffffffff1673ffffffffffffffffffffffffffffffffffffffff1663a9059cbb8484600001546040518363ffffffff1660e01b8152600401808373ffffffffffffffffffffffffffffffffffffffff16815260200182815260200192505050602060405180830381600087803b15801561154057600080fd5b505af1158015611554573d6000803e3d6000fd5b505050506040513d602081101561156a57600080fd5b81019080805190602001909291905050509050806115f0576040517f08c379a000000000000000000000000000000000000000000000000000000000815260040180806020018281038252600f8152602001807f7472616e73666572206661696c6564000000000000000000000000000000000081525060200191505060405180910390fd5b8273ffffffffffffffffffffffffffffffffffffffff167fbb28353e4598c3b9199101a66e0989549b659a59a54d2c27fbb183f1932c8e6d83600001546040518082815260200191505060405180910390a28160000154600360008282540392505081905550600160008473ffffffffffffffffffffffffffffffffffffffff1673ffffffffffffffffffffffffffffffffffffffff1681526020019081526020016000206000808201600090556001820160006101000a81549060ff02191690556001820160016101000a81549060ff021916905550506116d183611af2565b505050565b600460009054906101000a900473ffffffffffffffffffffffffffffffffffffffff1681565b611704611c67565b73ffffffffffffffffffffffffffffffffffffffff1660008054906101000a900473ffffffffffffffffffffffffffffffffffffffff1673ffffffffffffffffffffffffffffffffffffffff16146117c4576040517f08c379a00000000000000000000000000000000000000000000000000000000081526004018080602001828103825260208152602001807f4f776e61626c653a2063616c6c6572206973206e6f7420746865206f776e657281525060200191505060405180910390fd5b6000600160008373ffffffffffffffffffffffffffffffffffffffff1673ffffffffffffffffffffffffffffffffffffffff16815260200190815260200160002090506000816000015411611881576040517f08c379a00000000000000000000000000000000000000000000000000000000081526004018080602001828103825260158152602001807f7468697320657363726f7720697320656d70747921000000000000000000000081525060200191505060405180910390fd5b60018160010160006101000a81548160ff0219169083151502179055508060010160019054906101000a900460ff1615611aee5760006118bf610c5f565b90506000600460009054906101000a900473ffffffffffffffffffffffffffffffffffffffff1673ffffffffffffffffffffffffffffffffffffffff1663a9059cbb8385600001546040518363ffffffff1660e01b8152600401808373ffffffffffffffffffffffffffffffffffffffff16815260200182815260200192505050602060405180830381600087803b15801561195a57600080fd5b505af115801561196e573d6000803e3d6000fd5b505050506040513d602081101561198457600080fd5b8101908080519060200190929190505050905080611a0a576040517f08c379a00000000000000000000000000000000000000000000000000000000081526004018080602001828103825260138152602001807f7472616e736665722077656e742077726f6e670000000000000000000000000081525060200191505060405180910390fd5b3373ffffffffffffffffffffffffffffffffffffffff167f0d146c6f57f8a168870bb63fd25e4a3c463e17b97f867ccd15389f6cabd36dc584600001546040518082815260200191505060405180910390a28260000154600360008282540392505081905550600160008573ffffffffffffffffffffffffffffffffffffffff1673ffffffffffffffffffffffffffffffffffffffff1681526020019081526020016000206000808201600090556001820160006101000a81549060ff02191690556001820160016101000a81549060ff02191690555050611aeb84611af2565b50505b5050565b60006002805490509050600080600090505b82811015611b88578373ffffffffffffffffffffffffffffffffffffffff1660028281548110611b3057fe5b9060005260206000200160009054906101000a900473ffffffffffffffffffffffffffffffffffffffff1673ffffffffffffffffffffffffffffffffffffffff161415611b7b578091505b8080600101915050611b04565b5060018203811015611c255760026001830381548110611ba457fe5b9060005260206000200160009054906101000a900473ffffffffffffffffffffffffffffffffffffffff1660028281548110611bdc57fe5b9060005260206000200160006101000a81548173ffffffffffffffffffffffffffffffffffffffff021916908373ffffffffffffffffffffffffffffffffffffffff1602179055505b60026001830381548110611c3557fe5b9060005260206000200160006101000a81549073ffffffffffffffffffffffffffffffffffffffff0219169055505050565b600033905090565b6040518060600160405280600081526020016000151581526020016000151581525090565b5080546000825590600052602060002090810190611cb29190611cb5565b50565b5b80821115611cce576000816000905550600101611cb6565b509056fe4f776e61626c653a206e6577206f776e657220697320746865207a65726f206164647265737374686973206164647265737320616c72656164792068617320616e20657363726f77a264697066735822122026dc27412b685810916f81690ea6ca5feaa68db47d7fbc1a940344f0f6e7c6be64736f6c634300060c00334f776e61626c653a206e6577206f776e657220697320746865207a65726f2061646472657373",
  "immutableReferences": {},
  "source": "import \"@openzeppelin/contracts/access/Ownable.sol\";\nimport \"@openzeppelin/contracts/token/ERC20/ERC20.sol\";\n\npragma solidity ^0.6.12;\n\ncontract Freelancer is Ownable {\n    struct Escrow {\n        //   address payable merchant;\n        uint256 balance;\n        bool isShipped;\n        bool isReceived;\n    }\n\n    mapping(address => Escrow) escrows;\n    // mapping(address => address) clientLookup;\n    address[] public clients;\n    uint256 public totalBalance;\n\n    IERC20 public token;\n\n    event Deposit(address indexed _client, uint256 _value);\n    event Refund(address indexed _client, uint256 _value);\n    event Disperse(address indexed _client, uint256 _value);\n\n    constructor(address _newOwner, address _tokenAddress) public {\n        transferOwnership(_newOwner);\n        token = IERC20(_tokenAddress);\n    }\n\n    function sendToken(uint256 _value) external returns (bool) {\n        Escrow storage escrow = escrows[address(msg.sender)];\n        // reject transfer from address already associated with escrow\n        require(escrow.balance == 0, \"this address already has an escrow\");\n\n        bool sent = token.transferFrom(msg.sender, address(this), _value);\n        require(sent, \"transfer failed\");\n\n        escrow.balance = _value;\n        clients.push(msg.sender);\n\n        totalBalance += _value;\n\n        emit Deposit(msg.sender, _value);\n        return sent;\n    }\n\n    function _transfer(address receiver, uint256 value) internal {\n        bool sent = token.transfer(receiver, value);\n\n        require(sent, \"didn't send\");\n    }\n\n    //interface should check onlyOwner?\n    function markShipped(address _client) public onlyOwner {\n        Escrow storage escrow = escrows[_client];\n        require(escrow.balance > 0, \"this escrow is empty!\");\n        escrow.isShipped = true;\n\n        if (escrow.isReceived) {\n            address owner = owner();\n            bool sent = token.transfer(address(owner), escrow.balance);\n\n            require(sent, \"transfer went wrong\");\n            emit Disperse(msg.sender, escrow.balance);\n            totalBalance -= escrow.balance;\n            delete escrows[_client];\n            _cleanup(_client);\n        }\n    }\n\n    function markReceived() public {\n        Escrow storage escrow = escrows[msg.sender];\n        require(escrow.balance > 0, \"this escrow is empty!\");\n        escrow.isReceived = true;\n\n        if (escrow.isShipped == true) {\n            address owner = owner();\n            bool sent = token.transfer(address(owner), escrow.balance);\n\n            require(sent, \"transfer failed\");\n            emit Disperse(msg.sender, escrow.balance);\n            totalBalance -= escrow.balance;\n            delete escrows[msg.sender];\n            _cleanup(msg.sender);\n        }\n    }\n\n    function refund(address _client) public onlyOwner {\n        Escrow storage escrow = escrows[_client];\n        require(escrow.balance > 0, \"this escrow is empty!\");\n\n        bool sent = token.transfer(address(_client), escrow.balance);\n\n        require(sent, \"transfer failed\");\n        emit Refund(_client, escrow.balance);\n        totalBalance -= escrow.balance;\n        delete escrows[_client];\n        _cleanup(_client);\n    }\n\n    function reset() public onlyOwner {\n        address owner = owner();\n        uint256 length = clients.length;\n\n        for (uint256 i = length; i > 0; i--) {\n            // payable(owner).transfer(escrows[clients[i - 1]].balance);\n            // _transfer(owner, escrows[clients[i - 1]].balance);\n            // token.transfer(address(owner), escrows[clients[i-1]].balance);\n            delete escrows[clients[i - 1]];\n            delete clients[i - 1];\n        }\n\n        uint256 balance = token.balanceOf(address(this));\n        token.transfer(address(this), balance);\n        totalBalance = 0;\n        delete clients;\n    }\n\n    // is this effecient?\n    function _cleanup(address _client) private {\n        uint256 length = clients.length;\n        uint256 indexToDelete;\n\n        for (uint256 i = 0; i < length; i++) {\n            if (clients[i] == _client) {\n                indexToDelete = i;\n            }\n        }\n\n        // if indexToDelete is not last in array, swap position\n        if (indexToDelete < length - 1) {\n            clients[indexToDelete] = clients[length - 1];\n        }\n        // remove last element\n        delete clients[length - 1];\n    }\n\n    function getEscrowValues(address _escrow)\n        public\n        view\n        returns (\n            uint256,\n            bool,\n            bool\n        )\n    {\n        Escrow memory escrow = escrows[_escrow];\n        return (escrow.balance, escrow.isShipped, escrow.isReceived);\n    }\n\n    function getClients() public view returns (address[] memory) {\n        return clients;\n    }\n\n    // mark for deletion, already in Ownable.sol\n    function getOwner() public view returns (address) {\n        address owner = owner();\n        return owner;\n    }\n\n    function total() public view returns (uint256) {\n        return totalBalance;\n    }\n}\n",
  "sourcePath": "/home/janssen/Code/ethdev/trustless-freelancer/contract/contracts/Freelancer.sol",
  "compiler": {
    "name": "solc",
    "version": "0.6.12+commit.27d51765.Emscripten.clang"
  },
  "schemaVersion": "3.2.3",
  "updatedAt": "2020-11-06T20:22:57.313Z",
  "networkType": "ethereum",
  "devdoc": {
    "kind": "dev",
    "methods": {
      "owner()": {
        "details": "Returns the address of the current owner."
      },
      "renounceOwnership()": {
        "details": "Leaves the contract without owner. It will not be possible to call `onlyOwner` functions anymore. Can only be called by the current owner. NOTE: Renouncing ownership will leave the contract without an owner, thereby removing any functionality that is only available to the owner."
      },
      "transferOwnership(address)": {
        "details": "Transfers ownership of the contract to a new account (`newOwner`). Can only be called by the current owner."
      }
    },
    "version": 1
  },
  "userdoc": {
    "kind": "user",
    "methods": {},
    "version": 1
  }
}