{
  "contractName": "Instantiator",
  "abi": [
    {
      "inputs": [],
      "name": "getContract",
      "outputs": [
        {
          "internalType": "address",
          "name": "",
          "type": "address"
        }
      ],
      "stateMutability": "view",
      "type": "function",
      "constant": true
    },
    {
      "inputs": [
        {
          "internalType": "string",
          "name": "_contractName",
          "type": "string"
        }
      ],
      "name": "deploy",
      "outputs": [],
      "stateMutability": "nonpayable",
      "type": "function"
    },
    {
      "inputs": [],
      "name": "clearAll",
      "outputs": [],
      "stateMutability": "nonpayable",
      "type": "function"
    }
  ],
  "bytecode": "0x608060405234801561001057600080fd5b50612c98806100206000396000f3fe608060405234801561001057600080fd5b50600436106100415760003560e01c8063958f85bd14610046578063c76023161461007a578063ebb689a114610135575b600080fd5b61004e61013f565b604051808273ffffffffffffffffffffffffffffffffffffffff16815260200191505060405180910390f35b6101336004803603602081101561009057600080fd5b81019080803590602001906401000000008111156100ad57600080fd5b8201836020820111156100bf57600080fd5b803590602001918460018302840111640100000000831117156100e157600080fd5b91908080601f016020809104026020016040519081016040528093929190818152602001838380828437600081840152601f19601f8201169050808301925050505050505091929192905050506101a5565b005b61013d610459565b005b60008060003373ffffffffffffffffffffffffffffffffffffffff1673ffffffffffffffffffffffffffffffffffffffff16815260200190815260200160002060009054906101000a900473ffffffffffffffffffffffffffffffffffffffff16905090565b600073ffffffffffffffffffffffffffffffffffffffff166000803373ffffffffffffffffffffffffffffffffffffffff1673ffffffffffffffffffffffffffffffffffffffff16815260200190815260200160002060009054906101000a900473ffffffffffffffffffffffffffffffffffffffff1673ffffffffffffffffffffffffffffffffffffffff1614610288576040517f08c379a0000000000000000000000000000000000000000000000000000000008152600401808060200182810382526024815260200180612c3f6024913960400191505060405180910390fd5b6000338273ddbfd4bb2cfffe0bee18c5f11edc22efe62372666040516102ad9061052c565b808473ffffffffffffffffffffffffffffffffffffffff168152602001806020018373ffffffffffffffffffffffffffffffffffffffff168152602001828103825284818151815260200191508051906020019080838360005b83811015610322578082015181840152602081019050610307565b50505050905090810190601f16801561034f5780820380516001836020036101000a031916815260200191505b50945050505050604051809103906000f080158015610372573d6000803e3d6000fd5b509050806000803373ffffffffffffffffffffffffffffffffffffffff1673ffffffffffffffffffffffffffffffffffffffff16815260200190815260200160002060006101000a81548173ffffffffffffffffffffffffffffffffffffffff021916908373ffffffffffffffffffffffffffffffffffffffff1602179055506001339080600181540180825580915050600190039060005260206000200160009091909190916101000a81548173ffffffffffffffffffffffffffffffffffffffff021916908373ffffffffffffffffffffffffffffffffffffffff1602179055505050565b6000600180549050905060008190505b600081111561051a5760008060018084038154811061048457fe5b9060005260206000200160009054906101000a900473ffffffffffffffffffffffffffffffffffffffff1673ffffffffffffffffffffffffffffffffffffffff1673ffffffffffffffffffffffffffffffffffffffff16815260200190815260200160002060006101000a81549073ffffffffffffffffffffffffffffffffffffffff0219169055808060019003915050610469565b50600160006105299190610539565b50565b6126c78061057883390190565b5080546000825590600052602060002090810190610557919061055a565b50565b5b8082111561057357600081600090555060010161055b565b509056fe60806040523480156200001157600080fd5b50604051620026c7380380620026c7833981810160405260608110156200003757600080fd5b8101908080519060200190929190805160405193929190846401000000008211156200006257600080fd5b838201915060208201858111156200007957600080fd5b82518660018202830111640100000000821117156200009757600080fd5b8083526020830192505050908051906020019080838360005b83811015620000cd578082015181840152602081019050620000b0565b50505050905090810190601f168015620000fb5780820380516001836020036101000a031916815260200191505b50604052602001805190602001909291905050506000620001216200023360201b60201c565b9050806000806101000a81548173ffffffffffffffffffffffffffffffffffffffff021916908373ffffffffffffffffffffffffffffffffffffffff1602179055508073ffffffffffffffffffffffffffffffffffffffff16600073ffffffffffffffffffffffffffffffffffffffff167f8be0079c531659141344cd1fd0a4f28419497f9722a3daafe3b4186f6b6457e060405160405180910390a350620001d0836200023b60201b60201c565b8160039080519060200190620001e892919062000451565b5080600460006101000a81548173ffffffffffffffffffffffffffffffffffffffff021916908373ffffffffffffffffffffffffffffffffffffffff160217905550505050620004f7565b600033905090565b6200024b6200023360201b60201c565b73ffffffffffffffffffffffffffffffffffffffff1660008054906101000a900473ffffffffffffffffffffffffffffffffffffffff1673ffffffffffffffffffffffffffffffffffffffff16146200030c576040517f08c379a00000000000000000000000000000000000000000000000000000000081526004018080602001828103825260208152602001807f4f776e61626c653a2063616c6c6572206973206e6f7420746865206f776e657281525060200191505060405180910390fd5b600073ffffffffffffffffffffffffffffffffffffffff168173ffffffffffffffffffffffffffffffffffffffff16141562000394576040517f08c379a0000000000000000000000000000000000000000000000000000000008152600401808060200182810382526026815260200180620026a16026913960400191505060405180910390fd5b8073ffffffffffffffffffffffffffffffffffffffff1660008054906101000a900473ffffffffffffffffffffffffffffffffffffffff1673ffffffffffffffffffffffffffffffffffffffff167f8be0079c531659141344cd1fd0a4f28419497f9722a3daafe3b4186f6b6457e060405160405180910390a3806000806101000a81548173ffffffffffffffffffffffffffffffffffffffff021916908373ffffffffffffffffffffffffffffffffffffffff16021790555050565b828054600181600116156101000203166002900490600052602060002090601f016020900481019282601f106200049457805160ff1916838001178555620004c5565b82800160010185558215620004c5579182015b82811115620004c4578251825591602001919060010190620004a7565b5b509050620004d49190620004d8565b5090565b5b80821115620004f3576000816000905550600101620004d9565b5090565b61219a80620005076000396000f3fe608060405234801561001057600080fd5b50600436106100f55760003560e01c80638da5cb5b11610097578063f88af21d11610066578063f88af21d14610475578063fa89401a146104cd578063fc0c546a14610511578063fc6dc17d14610545576100f5565b80638da5cb5b1461031d578063ac56f9ac14610351578063d826f88f14610427578063f2fde38b14610431576100f5565b80636db80995116100d35780636db80995146101a5578063715018a61461020457806385a084de1461020e578063893d20e8146102e9576100f5565b806317d7de7c146100fa5780632ddbd13a1461017d5780635748b1841461019b575b600080fd5b610102610589565b6040518080602001828103825283818151815260200191508051906020019080838360005b83811015610142578082015181840152602081019050610127565b50505050905090810190601f16801561016f5780820380516001836020036101000a031916815260200191505b509250505060405180910390f35b61018561062b565b6040518082815260200191505060405180910390f35b6101a36106fb565b005b6101ad610a2b565b6040518080602001828103825283818151815260200191508051906020019060200280838360005b838110156101f05780820151818401526020810190506101d5565b505050509050019250505060405180910390f35b61020c610ab9565b005b6102d16004803603604081101561022457600080fd5b81019080803590602001909291908035906020019064010000000081111561024b57600080fd5b82018360208201111561025d57600080fd5b8035906020019184600183028401116401000000008311171561027f57600080fd5b91908080601f016020809104026020016040519081016040528093929190818152602001838380828437600081840152601f19601f820116905080830192505050505050509192919290505050610c3f565b60405180821515815260200191505060405180910390f35b6102f1610f21565b604051808273ffffffffffffffffffffffffffffffffffffffff16815260200191505060405180910390f35b610325610f35565b604051808273ffffffffffffffffffffffffffffffffffffffff16815260200191505060405180910390f35b6103936004803603602081101561036757600080fd5b81019080803573ffffffffffffffffffffffffffffffffffffffff169060200190929190505050610f5e565b604051808060200185815260200184151581526020018315158152602001828103825286818151815260200191508051906020019080838360005b838110156103e95780820151818401526020810190506103ce565b50505050905090810190601f1680156104165780820380516001836020036101000a031916815260200191505b509550505050505060405180910390f35b61042f6110bf565b005b6104736004803603602081101561044757600080fd5b81019080803573ffffffffffffffffffffffffffffffffffffffff16906020019092919050505061145e565b005b6104a16004803603602081101561048b57600080fd5b8101908080359060200190929190505050611669565b604051808273ffffffffffffffffffffffffffffffffffffffff16815260200191505060405180910390f35b61050f600480360360208110156104e357600080fd5b81019080803573ffffffffffffffffffffffffffffffffffffffff1690602001909291905050506116a5565b005b610519611a55565b604051808273ffffffffffffffffffffffffffffffffffffffff16815260200191505060405180910390f35b6105876004803603602081101561055b57600080fd5b81019080803573ffffffffffffffffffffffffffffffffffffffff169060200190929190505050611a7b565b005b606060038054600181600116156101000203166002900480601f0160208091040260200160405190810160405280929190818152602001828054600181600116156101000203166002900480156106215780601f106105f657610100808354040283529160200191610621565b820191906000526020600020905b81548152906001019060200180831161060457829003601f168201915b5050505050905090565b600080600460009054906101000a900473ffffffffffffffffffffffffffffffffffffffff1673ffffffffffffffffffffffffffffffffffffffff166370a08231306040518263ffffffff1660e01b8152600401808273ffffffffffffffffffffffffffffffffffffffff16815260200191505060206040518083038186803b1580156106b757600080fd5b505afa1580156106cb573d6000803e3d6000fd5b505050506040513d60208110156106e157600080fd5b810190808051906020019092919050505090508091505090565b6000600160003373ffffffffffffffffffffffffffffffffffffffff1673ffffffffffffffffffffffffffffffffffffffff168152602001908152602001600020905060008160000154116107b8576040517f08c379a00000000000000000000000000000000000000000000000000000000081526004018080602001828103825260158152602001807f7468697320657363726f7720697320656d70747921000000000000000000000081525060200191505060405180910390fd5b60018160020160016101000a81548160ff021916908315150217905550600115158160020160009054906101000a900460ff1615151415610a285760006107fd610f35565b90506000600460009054906101000a900473ffffffffffffffffffffffffffffffffffffffff1673ffffffffffffffffffffffffffffffffffffffff1663a9059cbb8385600001546040518363ffffffff1660e01b8152600401808373ffffffffffffffffffffffffffffffffffffffff16815260200182815260200192505050602060405180830381600087803b15801561089857600080fd5b505af11580156108ac573d6000803e3d6000fd5b505050506040513d60208110156108c257600080fd5b8101908080519060200190929190505050905080610948576040517f08c379a000000000000000000000000000000000000000000000000000000000815260040180806020018281038252600f8152602001807f7472616e73666572206661696c6564000000000000000000000000000000000081525060200191505060405180910390fd5b3373ffffffffffffffffffffffffffffffffffffffff167f0d146c6f57f8a168870bb63fd25e4a3c463e17b97f867ccd15389f6cabd36dc584600001546040518082815260200191505060405180910390a2600160003373ffffffffffffffffffffffffffffffffffffffff1673ffffffffffffffffffffffffffffffffffffffff1681526020019081526020016000206000808201600090556001820160006109f29190611fea565b6002820160006101000a81549060ff02191690556002820160016101000a81549060ff02191690555050610a2533611e6d565b50505b50565b60606002805480602002602001604051908101604052809291908181526020018280548015610aaf57602002820191906000526020600020905b8160009054906101000a900473ffffffffffffffffffffffffffffffffffffffff1673ffffffffffffffffffffffffffffffffffffffff1681526020019060010190808311610a65575b5050505050905090565b610ac1611fe2565b73ffffffffffffffffffffffffffffffffffffffff1660008054906101000a900473ffffffffffffffffffffffffffffffffffffffff1673ffffffffffffffffffffffffffffffffffffffff1614610b81576040517f08c379a00000000000000000000000000000000000000000000000000000000081526004018080602001828103825260208152602001807f4f776e61626c653a2063616c6c6572206973206e6f7420746865206f776e657281525060200191505060405180910390fd5b600073ffffffffffffffffffffffffffffffffffffffff1660008054906101000a900473ffffffffffffffffffffffffffffffffffffffff1673ffffffffffffffffffffffffffffffffffffffff167f8be0079c531659141344cd1fd0a4f28419497f9722a3daafe3b4186f6b6457e060405160405180910390a360008060006101000a81548173ffffffffffffffffffffffffffffffffffffffff021916908373ffffffffffffffffffffffffffffffffffffffff160217905550565b600080600160003373ffffffffffffffffffffffffffffffffffffffff1673ffffffffffffffffffffffffffffffffffffffff16815260200190815260200160002090506000816000015414610ce0576040517f08c379a00000000000000000000000000000000000000000000000000000000081526004018080602001828103825260228152602001806121436022913960400191505060405180910390fd5b6000600460009054906101000a900473ffffffffffffffffffffffffffffffffffffffff1673ffffffffffffffffffffffffffffffffffffffff166323b872dd3330886040518463ffffffff1660e01b8152600401808473ffffffffffffffffffffffffffffffffffffffff1681526020018373ffffffffffffffffffffffffffffffffffffffff1681526020018281526020019350505050602060405180830381600087803b158015610d9357600080fd5b505af1158015610da7573d6000803e3d6000fd5b505050506040513d6020811015610dbd57600080fd5b8101908080519060200190929190505050905080610e43576040517f08c379a000000000000000000000000000000000000000000000000000000000815260040180806020018281038252600f8152602001807f7472616e73666572206661696c6564000000000000000000000000000000000081525060200191505060405180910390fd5b84826000018190555083826001019080519060200190610e64929190612032565b506002339080600181540180825580915050600190039060005260206000200160009091909190916101000a81548173ffffffffffffffffffffffffffffffffffffffff021916908373ffffffffffffffffffffffffffffffffffffffff1602179055503373ffffffffffffffffffffffffffffffffffffffff167fe1fffcc4923d04b559f4d29a8bfc6cda04eb5b0d3c460751c2402c5c5cc9109c866040518082815260200191505060405180910390a2809250505092915050565b600080610f2c610f35565b90508091505090565b60008060009054906101000a900473ffffffffffffffffffffffffffffffffffffffff16905090565b60606000806000610f6d6120b2565b600160008773ffffffffffffffffffffffffffffffffffffffff1673ffffffffffffffffffffffffffffffffffffffff16815260200190815260200160002060405180608001604052908160008201548152602001600182018054600181600116156101000203166002900480601f01602080910402602001604051908101604052809291908181526020018280546001816001161561010002031660029004801561105a5780601f1061102f5761010080835404028352916020019161105a565b820191906000526020600020905b81548152906001019060200180831161103d57829003601f168201915b505050505081526020016002820160009054906101000a900460ff161515151581526020016002820160019054906101000a900460ff161515151581525050905080602001518160000151826040015183606001519450945094509450509193509193565b6110c7611fe2565b73ffffffffffffffffffffffffffffffffffffffff1660008054906101000a900473ffffffffffffffffffffffffffffffffffffffff1673ffffffffffffffffffffffffffffffffffffffff1614611187576040517f08c379a00000000000000000000000000000000000000000000000000000000081526004018080602001828103825260208152602001807f4f776e61626c653a2063616c6c6572206973206e6f7420746865206f776e657281525060200191505060405180910390fd5b6000611191610f35565b90506000600280549050905060008190505b60008111156112b35760016000600260018403815481106111c057fe5b9060005260206000200160009054906101000a900473ffffffffffffffffffffffffffffffffffffffff1673ffffffffffffffffffffffffffffffffffffffff1673ffffffffffffffffffffffffffffffffffffffff16815260200190815260200160002060008082016000905560018201600061123e9190611fea565b6002820160006101000a81549060ff02191690556002820160016101000a81549060ff021916905550506002600182038154811061127857fe5b9060005260206000200160006101000a81549073ffffffffffffffffffffffffffffffffffffffff02191690558080600190039150506111a3565b506000600460009054906101000a900473ffffffffffffffffffffffffffffffffffffffff1673ffffffffffffffffffffffffffffffffffffffff166370a08231306040518263ffffffff1660e01b8152600401808273ffffffffffffffffffffffffffffffffffffffff16815260200191505060206040518083038186803b15801561133f57600080fd5b505afa158015611353573d6000803e3d6000fd5b505050506040513d602081101561136957600080fd5b81019080805190602001909291905050509050600460009054906101000a900473ffffffffffffffffffffffffffffffffffffffff1673ffffffffffffffffffffffffffffffffffffffff1663a9059cbb84836040518363ffffffff1660e01b8152600401808373ffffffffffffffffffffffffffffffffffffffff16815260200182815260200192505050602060405180830381600087803b15801561140f57600080fd5b505af1158015611423573d6000803e3d6000fd5b505050506040513d602081101561143957600080fd5b8101908080519060200190929190505050506002600061145991906120de565b505050565b611466611fe2565b73ffffffffffffffffffffffffffffffffffffffff1660008054906101000a900473ffffffffffffffffffffffffffffffffffffffff1673ffffffffffffffffffffffffffffffffffffffff1614611526576040517f08c379a00000000000000000000000000000000000000000000000000000000081526004018080602001828103825260208152602001807f4f776e61626c653a2063616c6c6572206973206e6f7420746865206f776e657281525060200191505060405180910390fd5b600073ffffffffffffffffffffffffffffffffffffffff168173ffffffffffffffffffffffffffffffffffffffff1614156115ac576040517f08c379a000000000000000000000000000000000000000000000000000000000815260040180806020018281038252602681526020018061211d6026913960400191505060405180910390fd5b8073ffffffffffffffffffffffffffffffffffffffff1660008054906101000a900473ffffffffffffffffffffffffffffffffffffffff1673ffffffffffffffffffffffffffffffffffffffff167f8be0079c531659141344cd1fd0a4f28419497f9722a3daafe3b4186f6b6457e060405160405180910390a3806000806101000a81548173ffffffffffffffffffffffffffffffffffffffff021916908373ffffffffffffffffffffffffffffffffffffffff16021790555050565b6002818154811061167657fe5b906000526020600020016000915054906101000a900473ffffffffffffffffffffffffffffffffffffffff1681565b6116ad611fe2565b73ffffffffffffffffffffffffffffffffffffffff1660008054906101000a900473ffffffffffffffffffffffffffffffffffffffff1673ffffffffffffffffffffffffffffffffffffffff161461176d576040517f08c379a00000000000000000000000000000000000000000000000000000000081526004018080602001828103825260208152602001807f4f776e61626c653a2063616c6c6572206973206e6f7420746865206f776e657281525060200191505060405180910390fd5b6000600160008373ffffffffffffffffffffffffffffffffffffffff1673ffffffffffffffffffffffffffffffffffffffff1681526020019081526020016000209050600081600001541161182a576040517f08c379a00000000000000000000000000000000000000000000000000000000081526004018080602001828103825260158152602001807f7468697320657363726f7720697320656d70747921000000000000000000000081525060200191505060405180910390fd5b6000600460009054906101000a900473ffffffffffffffffffffffffffffffffffffffff1673ffffffffffffffffffffffffffffffffffffffff1663a9059cbb8484600001546040518363ffffffff1660e01b8152600401808373ffffffffffffffffffffffffffffffffffffffff16815260200182815260200192505050602060405180830381600087803b1580156118c357600080fd5b505af11580156118d7573d6000803e3d6000fd5b505050506040513d60208110156118ed57600080fd5b8101908080519060200190929190505050905080611973576040517f08c379a000000000000000000000000000000000000000000000000000000000815260040180806020018281038252600f8152602001807f7472616e73666572206661696c6564000000000000000000000000000000000081525060200191505060405180910390fd5b8273ffffffffffffffffffffffffffffffffffffffff167fbb28353e4598c3b9199101a66e0989549b659a59a54d2c27fbb183f1932c8e6d83600001546040518082815260200191505060405180910390a2600160008473ffffffffffffffffffffffffffffffffffffffff1673ffffffffffffffffffffffffffffffffffffffff168152602001908152602001600020600080820160009055600182016000611a1d9190611fea565b6002820160006101000a81549060ff02191690556002820160016101000a81549060ff02191690555050611a5083611e6d565b505050565b600460009054906101000a900473ffffffffffffffffffffffffffffffffffffffff1681565b611a83611fe2565b73ffffffffffffffffffffffffffffffffffffffff1660008054906101000a900473ffffffffffffffffffffffffffffffffffffffff1673ffffffffffffffffffffffffffffffffffffffff1614611b43576040517f08c379a00000000000000000000000000000000000000000000000000000000081526004018080602001828103825260208152602001807f4f776e61626c653a2063616c6c6572206973206e6f7420746865206f776e657281525060200191505060405180910390fd5b6000600160008373ffffffffffffffffffffffffffffffffffffffff1673ffffffffffffffffffffffffffffffffffffffff16815260200190815260200160002090506000816000015411611c00576040517f08c379a00000000000000000000000000000000000000000000000000000000081526004018080602001828103825260158152602001807f7468697320657363726f7720697320656d70747921000000000000000000000081525060200191505060405180910390fd5b60018160020160006101000a81548160ff0219169083151502179055508060020160019054906101000a900460ff1615611e69576000611c3e610f35565b90506000600460009054906101000a900473ffffffffffffffffffffffffffffffffffffffff1673ffffffffffffffffffffffffffffffffffffffff1663a9059cbb8385600001546040518363ffffffff1660e01b8152600401808373ffffffffffffffffffffffffffffffffffffffff16815260200182815260200192505050602060405180830381600087803b158015611cd957600080fd5b505af1158015611ced573d6000803e3d6000fd5b505050506040513d6020811015611d0357600080fd5b8101908080519060200190929190505050905080611d89576040517f08c379a00000000000000000000000000000000000000000000000000000000081526004018080602001828103825260138152602001807f7472616e736665722077656e742077726f6e670000000000000000000000000081525060200191505060405180910390fd5b3373ffffffffffffffffffffffffffffffffffffffff167f0d146c6f57f8a168870bb63fd25e4a3c463e17b97f867ccd15389f6cabd36dc584600001546040518082815260200191505060405180910390a2600160008573ffffffffffffffffffffffffffffffffffffffff1673ffffffffffffffffffffffffffffffffffffffff168152602001908152602001600020600080820160009055600182016000611e339190611fea565b6002820160006101000a81549060ff02191690556002820160016101000a81549060ff02191690555050611e6684611e6d565b50505b5050565b60006002805490509050600080600090505b82811015611f03578373ffffffffffffffffffffffffffffffffffffffff1660028281548110611eab57fe5b9060005260206000200160009054906101000a900473ffffffffffffffffffffffffffffffffffffffff1673ffffffffffffffffffffffffffffffffffffffff161415611ef6578091505b8080600101915050611e7f565b5060018203811015611fa05760026001830381548110611f1f57fe5b9060005260206000200160009054906101000a900473ffffffffffffffffffffffffffffffffffffffff1660028281548110611f5757fe5b9060005260206000200160006101000a81548173ffffffffffffffffffffffffffffffffffffffff021916908373ffffffffffffffffffffffffffffffffffffffff1602179055505b60026001830381548110611fb057fe5b9060005260206000200160006101000a81549073ffffffffffffffffffffffffffffffffffffffff0219169055505050565b600033905090565b50805460018160011615610100020316600290046000825580601f10612010575061202f565b601f01602090049060005260206000209081019061202e91906120ff565b5b50565b828054600181600116156101000203166002900490600052602060002090601f016020900481019282601f1061207357805160ff19168380011785556120a1565b828001600101855582156120a1579182015b828111156120a0578251825591602001919060010190612085565b5b5090506120ae91906120ff565b5090565b604051806080016040528060008152602001606081526020016000151581526020016000151581525090565b50805460008255906000526020600020908101906120fc91906120ff565b50565b5b80821115612118576000816000905550600101612100565b509056fe4f776e61626c653a206e6577206f776e657220697320746865207a65726f206164647265737374686973206164647265737320616c72656164792068617320616e20657363726f77a2646970667358221220e7dec711e1545092d35b1ed1d1253663feda7365e9fe4b4fc666f284a3fa37a064736f6c634300060c00334f776e61626c653a206e6577206f776e657220697320746865207a65726f206164647265737374686973206164647265737320616c726561647920686173206120636f6e747261637421a26469706673582212209936c571e587819c9d0ad1c238cf6b96d4cc31ff4cd50e97601128da9b42964064736f6c634300060c0033",
  "immutableReferences": {},
  "source": "pragma solidity ^0.6.12;\n\nimport \"./Freelancer.sol\";\n\ncontract Instantiator {\n    mapping(address => address) contractByOwner;\n\n    address[] owners;\n\n    function getContract() public view returns (address) {\n        return contractByOwner[msg.sender];\n    }\n\n    function deploy(string memory _contractName) public {\n        require(\n            contractByOwner[msg.sender] == address(0),\n            \"this address already has a contract!\"\n        );\n        Freelancer freelancer = new Freelancer(\n            msg.sender,\n            _contractName,\n            // address of token\n            address(0xDdbfd4Bb2CFFfe0BEe18C5F11eDc22eFe6237266)\n        );\n        contractByOwner[msg.sender] = address(freelancer);\n        owners.push(msg.sender);\n    }\n\n    function clearAll() public {\n        uint256 length = owners.length;\n\n        for (uint256 i = length; i > 0; i--) {\n            delete contractByOwner[owners[i - 1]];\n        }\n\n        delete owners;\n    }\n}\n",
  "sourcePath": "/home/janssen/Code/ethdev/trustless-freelancer/contract/contracts/Instantiator.sol",
  "compiler": {
    "name": "solc",
    "version": "0.6.12+commit.27d51765.Emscripten.clang"
  },
  "schemaVersion": "3.2.3",
  "updatedAt": "2020-11-24T22:00:20.013Z",
  "networkType": "ethereum",
  "devdoc": {
    "kind": "dev",
    "methods": {},
    "version": 1
  },
  "userdoc": {
    "kind": "user",
    "methods": {},
    "version": 1
  }
}